{"abi":[{"type":"constructor","inputs":[{"name":"_poolManager","type":"address","internalType":"contract IPoolManager"}],"stateMutability":"nonpayable"},{"type":"function","name":"BASE_FEE","inputs":[],"outputs":[{"name":"","type":"uint24","internalType":"uint24"}],"stateMutability":"view"},{"type":"function","name":"afterAddLiquidity","inputs":[{"name":"","type":"address","internalType":"address"},{"name":"","type":"tuple","internalType":"struct PoolKey","components":[{"name":"currency0","type":"address","internalType":"Currency"},{"name":"currency1","type":"address","internalType":"Currency"},{"name":"fee","type":"uint24","internalType":"uint24"},{"name":"tickSpacing","type":"int24","internalType":"int24"},{"name":"hooks","type":"address","internalType":"contract IHooks"}]},{"name":"","type":"tuple","internalType":"struct IPoolManager.ModifyLiquidityParams","components":[{"name":"tickLower","type":"int24","internalType":"int24"},{"name":"tickUpper","type":"int24","internalType":"int24"},{"name":"liquidityDelta","type":"int256","internalType":"int256"},{"name":"salt","type":"bytes32","internalType":"bytes32"}]},{"name":"","type":"int256","internalType":"BalanceDelta"},{"name":"","type":"int256","internalType":"BalanceDelta"},{"name":"","type":"bytes","internalType":"bytes"}],"outputs":[{"name":"","type":"bytes4","internalType":"bytes4"},{"name":"","type":"int256","internalType":"BalanceDelta"}],"stateMutability":"nonpayable"},{"type":"function","name":"afterDonate","inputs":[{"name":"","type":"address","internalType":"address"},{"name":"","type":"tuple","internalType":"struct PoolKey","components":[{"name":"currency0","type":"address","internalType":"Currency"},{"name":"currency1","type":"address","internalType":"Currency"},{"name":"fee","type":"uint24","internalType":"uint24"},{"name":"tickSpacing","type":"int24","internalType":"int24"},{"name":"hooks","type":"address","internalType":"contract IHooks"}]},{"name":"","type":"uint256","internalType":"uint256"},{"name":"","type":"uint256","internalType":"uint256"},{"name":"","type":"bytes","internalType":"bytes"}],"outputs":[{"name":"","type":"bytes4","internalType":"bytes4"}],"stateMutability":"nonpayable"},{"type":"function","name":"afterInitialize","inputs":[{"name":"","type":"address","internalType":"address"},{"name":"key","type":"tuple","internalType":"struct PoolKey","components":[{"name":"currency0","type":"address","internalType":"Currency"},{"name":"currency1","type":"address","internalType":"Currency"},{"name":"fee","type":"uint24","internalType":"uint24"},{"name":"tickSpacing","type":"int24","internalType":"int24"},{"name":"hooks","type":"address","internalType":"contract IHooks"}]},{"name":"","type":"uint160","internalType":"uint160"},{"name":"tick","type":"int24","internalType":"int24"}],"outputs":[{"name":"","type":"bytes4","internalType":"bytes4"}],"stateMutability":"nonpayable"},{"type":"function","name":"afterRemoveLiquidity","inputs":[{"name":"","type":"address","internalType":"address"},{"name":"","type":"tuple","internalType":"struct PoolKey","components":[{"name":"currency0","type":"address","internalType":"Currency"},{"name":"currency1","type":"address","internalType":"Currency"},{"name":"fee","type":"uint24","internalType":"uint24"},{"name":"tickSpacing","type":"int24","internalType":"int24"},{"name":"hooks","type":"address","internalType":"contract IHooks"}]},{"name":"","type":"tuple","internalType":"struct IPoolManager.ModifyLiquidityParams","components":[{"name":"tickLower","type":"int24","internalType":"int24"},{"name":"tickUpper","type":"int24","internalType":"int24"},{"name":"liquidityDelta","type":"int256","internalType":"int256"},{"name":"salt","type":"bytes32","internalType":"bytes32"}]},{"name":"","type":"int256","internalType":"BalanceDelta"},{"name":"","type":"int256","internalType":"BalanceDelta"},{"name":"","type":"bytes","internalType":"bytes"}],"outputs":[{"name":"","type":"bytes4","internalType":"bytes4"},{"name":"","type":"int256","internalType":"BalanceDelta"}],"stateMutability":"nonpayable"},{"type":"function","name":"afterSwap","inputs":[{"name":"","type":"address","internalType":"address"},{"name":"","type":"tuple","internalType":"struct PoolKey","components":[{"name":"currency0","type":"address","internalType":"Currency"},{"name":"currency1","type":"address","internalType":"Currency"},{"name":"fee","type":"uint24","internalType":"uint24"},{"name":"tickSpacing","type":"int24","internalType":"int24"},{"name":"hooks","type":"address","internalType":"contract IHooks"}]},{"name":"","type":"tuple","internalType":"struct IPoolManager.SwapParams","components":[{"name":"zeroForOne","type":"bool","internalType":"bool"},{"name":"amountSpecified","type":"int256","internalType":"int256"},{"name":"sqrtPriceLimitX96","type":"uint160","internalType":"uint160"}]},{"name":"","type":"int256","internalType":"BalanceDelta"},{"name":"","type":"bytes","internalType":"bytes"}],"outputs":[{"name":"","type":"bytes4","internalType":"bytes4"},{"name":"","type":"int128","internalType":"int128"}],"stateMutability":"nonpayable"},{"type":"function","name":"beforeAddLiquidity","inputs":[{"name":"","type":"address","internalType":"address"},{"name":"","type":"tuple","internalType":"struct PoolKey","components":[{"name":"currency0","type":"address","internalType":"Currency"},{"name":"currency1","type":"address","internalType":"Currency"},{"name":"fee","type":"uint24","internalType":"uint24"},{"name":"tickSpacing","type":"int24","internalType":"int24"},{"name":"hooks","type":"address","internalType":"contract IHooks"}]},{"name":"","type":"tuple","internalType":"struct IPoolManager.ModifyLiquidityParams","components":[{"name":"tickLower","type":"int24","internalType":"int24"},{"name":"tickUpper","type":"int24","internalType":"int24"},{"name":"liquidityDelta","type":"int256","internalType":"int256"},{"name":"salt","type":"bytes32","internalType":"bytes32"}]},{"name":"","type":"bytes","internalType":"bytes"}],"outputs":[{"name":"","type":"bytes4","internalType":"bytes4"}],"stateMutability":"nonpayable"},{"type":"function","name":"beforeDonate","inputs":[{"name":"","type":"address","internalType":"address"},{"name":"","type":"tuple","internalType":"struct PoolKey","components":[{"name":"currency0","type":"address","internalType":"Currency"},{"name":"currency1","type":"address","internalType":"Currency"},{"name":"fee","type":"uint24","internalType":"uint24"},{"name":"tickSpacing","type":"int24","internalType":"int24"},{"name":"hooks","type":"address","internalType":"contract IHooks"}]},{"name":"","type":"uint256","internalType":"uint256"},{"name":"","type":"uint256","internalType":"uint256"},{"name":"","type":"bytes","internalType":"bytes"}],"outputs":[{"name":"","type":"bytes4","internalType":"bytes4"}],"stateMutability":"nonpayable"},{"type":"function","name":"beforeInitialize","inputs":[{"name":"","type":"address","internalType":"address"},{"name":"key","type":"tuple","internalType":"struct PoolKey","components":[{"name":"currency0","type":"address","internalType":"Currency"},{"name":"currency1","type":"address","internalType":"Currency"},{"name":"fee","type":"uint24","internalType":"uint24"},{"name":"tickSpacing","type":"int24","internalType":"int24"},{"name":"hooks","type":"address","internalType":"contract IHooks"}]},{"name":"","type":"uint160","internalType":"uint160"}],"outputs":[{"name":"","type":"bytes4","internalType":"bytes4"}],"stateMutability":"pure"},{"type":"function","name":"beforeRemoveLiquidity","inputs":[{"name":"","type":"address","internalType":"address"},{"name":"","type":"tuple","internalType":"struct PoolKey","components":[{"name":"currency0","type":"address","internalType":"Currency"},{"name":"currency1","type":"address","internalType":"Currency"},{"name":"fee","type":"uint24","internalType":"uint24"},{"name":"tickSpacing","type":"int24","internalType":"int24"},{"name":"hooks","type":"address","internalType":"contract IHooks"}]},{"name":"","type":"tuple","internalType":"struct IPoolManager.ModifyLiquidityParams","components":[{"name":"tickLower","type":"int24","internalType":"int24"},{"name":"tickUpper","type":"int24","internalType":"int24"},{"name":"liquidityDelta","type":"int256","internalType":"int256"},{"name":"salt","type":"bytes32","internalType":"bytes32"}]},{"name":"","type":"bytes","internalType":"bytes"}],"outputs":[{"name":"","type":"bytes4","internalType":"bytes4"}],"stateMutability":"nonpayable"},{"type":"function","name":"beforeSwap","inputs":[{"name":"","type":"address","internalType":"address"},{"name":"key","type":"tuple","internalType":"struct PoolKey","components":[{"name":"currency0","type":"address","internalType":"Currency"},{"name":"currency1","type":"address","internalType":"Currency"},{"name":"fee","type":"uint24","internalType":"uint24"},{"name":"tickSpacing","type":"int24","internalType":"int24"},{"name":"hooks","type":"address","internalType":"contract IHooks"}]},{"name":"","type":"tuple","internalType":"struct IPoolManager.SwapParams","components":[{"name":"zeroForOne","type":"bool","internalType":"bool"},{"name":"amountSpecified","type":"int256","internalType":"int256"},{"name":"sqrtPriceLimitX96","type":"uint160","internalType":"uint160"}]},{"name":"","type":"bytes","internalType":"bytes"}],"outputs":[{"name":"","type":"bytes4","internalType":"bytes4"},{"name":"","type":"int256","internalType":"BeforeSwapDelta"},{"name":"","type":"uint24","internalType":"uint24"}],"stateMutability":"nonpayable"},{"type":"function","name":"getHookPermissions","inputs":[],"outputs":[{"name":"","type":"tuple","internalType":"struct Hooks.Permissions","components":[{"name":"beforeInitialize","type":"bool","internalType":"bool"},{"name":"afterInitialize","type":"bool","internalType":"bool"},{"name":"beforeAddLiquidity","type":"bool","internalType":"bool"},{"name":"afterAddLiquidity","type":"bool","internalType":"bool"},{"name":"beforeRemoveLiquidity","type":"bool","internalType":"bool"},{"name":"afterRemoveLiquidity","type":"bool","internalType":"bool"},{"name":"beforeSwap","type":"bool","internalType":"bool"},{"name":"afterSwap","type":"bool","internalType":"bool"},{"name":"beforeDonate","type":"bool","internalType":"bool"},{"name":"afterDonate","type":"bool","internalType":"bool"},{"name":"beforeSwapReturnDelta","type":"bool","internalType":"bool"},{"name":"afterSwapReturnDelta","type":"bool","internalType":"bool"},{"name":"afterAddLiquidityReturnDelta","type":"bool","internalType":"bool"},{"name":"afterRemoveLiquidityReturnDelta","type":"bool","internalType":"bool"}]}],"stateMutability":"pure"},{"type":"function","name":"lastTicks","inputs":[{"name":"poolId","type":"bytes32","internalType":"PoolId"}],"outputs":[{"name":"lastTick","type":"int24","internalType":"int24"}],"stateMutability":"view"},{"type":"function","name":"movingAverageGasPrice","inputs":[],"outputs":[{"name":"","type":"uint128","internalType":"uint128"}],"stateMutability":"view"},{"type":"function","name":"movingAverageGasPriceCount","inputs":[],"outputs":[{"name":"","type":"uint104","internalType":"uint104"}],"stateMutability":"view"},{"type":"function","name":"poolManager","inputs":[],"outputs":[{"name":"","type":"address","internalType":"contract IPoolManager"}],"stateMutability":"view"},{"type":"function","name":"unlockCallback","inputs":[{"name":"data","type":"bytes","internalType":"bytes"}],"outputs":[{"name":"","type":"bytes","internalType":"bytes"}],"stateMutability":"nonpayable"},{"type":"error","name":"HookNotImplemented","inputs":[]},{"type":"error","name":"InvalidPool","inputs":[]},{"type":"error","name":"LockFailure","inputs":[]},{"type":"error","name":"MustUseDynamicFee","inputs":[]},{"type":"error","name":"NotPoolManager","inputs":[]},{"type":"error","name":"NotSelf","inputs":[]}],"bytecode":{"object":"0x60a060405234801561000f575f80fd5b5060405161166138038061166183398101604081905261002e91610467565b6001600160a01b0381166080528061004530610054565b5061004e610147565b50610574565b6101448161013f604080516101c0810182525f80825260208201819052918101829052606081018290526080810182905260a0810182905260c0810182905260e08101829052610100810182905261012081018290526101408101829052610160810182905261018081018290526101a081019190915250604080516101c08101825260018082525f60208301819052928201839052606082018390526080820183905260a0820183905260c0820181905260e0820152610100810182905261012081018290526101408101829052610160810182905261018081018290526101a081019190915290565b61020c565b50565b600180543a9161016791600160801b90046001600160681b0316906104a8565b6001546001600160681b0391821691839161019391600160801b820416906001600160801b03166104c7565b61019d91906104f0565b6101a7919061050f565b600180546001600160801b0319166001600160801b039290921691909117808255600160801b90046001600160681b03169060106101e483610549565b91906101000a8154816001600160681b0302191690836001600160681b031602179055505050565b6102216001600160a01b03831661200061043d565b8151151590151514158061025157506102456001600160a01b03831661100061043d565b15158160200151151514155b80610278575061026c6001600160a01b03831661080061043d565b15158160400151151514155b8061029f57506102936001600160a01b03831661040061043d565b15158160600151151514155b806102c657506102ba6001600160a01b03831661020061043d565b15158160800151151514155b806102ed57506102e16001600160a01b03831661010061043d565b15158160a00151151514155b8061031357506103076001600160a01b038316608061043d565b15158160c00151151514155b80610339575061032d6001600160a01b038316604061043d565b15158160e00151151514155b8061036057506103536001600160a01b038316602061043d565b1515816101000151151514155b80610387575061037a6001600160a01b038316601061043d565b1515816101200151151514155b806103ae57506103a16001600160a01b038316600861043d565b1515816101400151151514155b806103d557506103c86001600160a01b038316600461043d565b1515816101600151151514155b806103fc57506103ef6001600160a01b038316600261043d565b1515816101800151151514155b8061042357506104166001600160a01b038316600161043d565b1515816101a00151151514155b1561043957610439630732d7b560e51b83610452565b5050565b6001600160a01b038282161615155b92915050565b815f526001600160a01b03811660045260245ffd5b5f60208284031215610477575f80fd5b81516001600160a01b038116811461048d575f80fd5b9392505050565b634e487b7160e01b5f52601160045260245ffd5b6001600160681b03818116838216019081111561044c5761044c610494565b6001600160801b0381811683821602908116908181146104e9576104e9610494565b5092915050565b6001600160801b03818116838216019081111561044c5761044c610494565b5f6001600160801b0383168061053357634e487b7160e01b5f52601260045260245ffd5b6001600160801b03929092169190910492915050565b5f6001600160681b0382166002600160681b0319810161056b5761056b610494565b60010192915050565b6080516110b96105a85f395f81816103a50152818161044f015281816104b00152818161055b01526105f801526110b95ff3fe608060405234801561000f575f80fd5b5060043610610115575f3560e01c80639f063efc116100ad578063cd2c70e81161007d578063dc98354e11610063578063dc98354e146103df578063e1b4af691461026c578063e4cbfea5146103f2575f80fd5b8063cd2c70e81461036e578063dc4c90d3146103a0575f80fd5b80639f063efc146101a5578063b47b2fb114610236578063b6a8b0fa1461026c578063c4e833ce1461027a575f80fd5b80636c2bbe7e116100e85780636c2bbe7e146101a55780636fe7e6eb146101d857806391dd7346146101eb5780639a161daa1461020b575f80fd5b806321d0ee7014610119578063259982e5146101195780633d18651e1461014a578063575e24b414610167575b5f80fd5b61012c61012736600461095c565b610427565b6040516001600160e01b031990911681526020015b60405180910390f35b61015361138881565b60405162ffffff9091168152602001610141565b61017a6101753660046109e3565b610441565b604080516001600160e01b03199094168452602084019290925262ffffff1690820152606001610141565b6101b86101b3366004610a3d565b610534565b604080516001600160e01b03199093168352602083019190915201610141565b61012c6101e6366004610ad9565b61054f565b6101fe6101f9366004610b30565b6105eb565b6040516101419190610b6f565b60015461021e906001600160801b031681565b6040516001600160801b039091168152602001610141565b610249610244366004610ba4565b610649565b604080516001600160e01b03199093168352600f9190910b602083015201610141565b61012c610127366004610c25565b610361604080516101c0810182525f80825260208201819052918101829052606081018290526080810182905260a0810182905260c0810182905260e08101829052610100810182905261012081018290526101408101829052610160810182905261018081018290526101a081019190915250604080516101c08101825260018082525f60208301819052928201839052606082018390526080820183905260a0820183905260c0820181905260e0820152610100810182905261012081018290526101408101829052610160810182905261018081018290526101a081019190915290565b6040516101419190610c7f565b60015461038890600160801b90046001600160681b031681565b6040516001600160681b039091168152602001610141565b6103c77f000000000000000000000000000000000000000000000000000000000000000081565b6040516001600160a01b039091168152602001610141565b61012c6103ed366004610da0565b610669565b610414610400366004610de7565b5f6020819052908152604090205460020b81565b60405160029190910b8152602001610141565b5f604051630a85dc2960e01b815260040160405180910390fd5b5f8080336001600160a01b037f0000000000000000000000000000000000000000000000000000000000000000161461048d5760405163570c108560e11b815260040160405180910390fd5b5f6104966106bc565b604051635275965160e01b81529091506001600160a01b037f000000000000000000000000000000000000000000000000000000000000000016906352759651906104e7908b908590600401610e10565b5f604051808303815f87803b1580156104fe575f80fd5b505af1158015610510573d5f803e3d5ffd5b506315d7892d60e21b9c5f9c5062400000949094179a509298505050505050505050565b5f80604051630a85dc2960e01b815260040160405180910390fd5b5f336001600160a01b037f000000000000000000000000000000000000000000000000000000000000000016146105995760405163570c108560e11b815260040160405180910390fd5b815f806105b56105ae36899003890189610e9f565b60a0902090565b815260208101919091526040015f20805462ffffff191662ffffff9290921691909117905550636fe7e6eb60e01b949350505050565b6060336001600160a01b037f000000000000000000000000000000000000000000000000000000000000000016146106365760405163570c108560e11b815260040160405180910390fd5b6106408383610763565b90505b92915050565b5f806106536107fc565b5063b47b2fb160e01b975f975095505050505050565b5f61068f61067d6060850160408601610f39565b62ffffff1662ffffff16628000001490565b6106ac576040516315b3d69f60e31b815260040160405180910390fd5b50636e4c1aa760e11b9392505050565b6001545f903a90600a906106da906001600160801b0316600b610f66565b6106e49190610f9c565b6001600160801b0316816001600160801b031611156107105761070a6002611388610fc9565b91505090565b600154600a9061072a906001600160801b03166009610f66565b6107349190610f9c565b6001600160801b0316816001600160801b0316101561075a5761070a6113886002610fee565b61138891505090565b60605f80306001600160a01b0316858560405161078192919061100c565b5f604051808303815f865af19150503d805f81146107ba576040519150601f19603f3d011682016040523d82523d5f602084013e6107bf565b606091505b509150915081156107d35791506106439050565b80515f036107f4576040516314815f4760e31b815260040160405180910390fd5b805160208201fd5b600180543a9161081c91600160801b90046001600160681b03169061101b565b6001546001600160681b0391821691839161084891600160801b820416906001600160801b0316610f66565b610852919061103a565b61085c9190610f9c565b600180546fffffffffffffffffffffffffffffffff19166001600160801b039290921691909117808255600160801b90046001600160681b03169060106108a283611059565b91906101000a8154816001600160681b0302191690836001600160681b031602179055505050565b6001600160a01b03811681146108de575f80fd5b50565b80356108ec816108ca565b919050565b5f60a08284031215610901575f80fd5b50919050565b5f60808284031215610901575f80fd5b5f8083601f840112610927575f80fd5b50813567ffffffffffffffff81111561093e575f80fd5b602083019150836020828501011115610955575f80fd5b9250929050565b5f805f805f6101608688031215610971575f80fd5b853561097c816108ca565b945061098b87602088016108f1565b935061099a8760c08801610907565b925061014086013567ffffffffffffffff8111156109b6575f80fd5b6109c288828901610917565b969995985093965092949392505050565b5f60608284031215610901575f80fd5b5f805f805f61014086880312156109f8575f80fd5b8535610a03816108ca565b9450610a1287602088016108f1565b9350610a218760c088016109d3565b925061012086013567ffffffffffffffff8111156109b6575f80fd5b5f805f805f805f6101a0888a031215610a54575f80fd5b8735610a5f816108ca565b9650610a6e8960208a016108f1565b9550610a7d8960c08a01610907565b94506101408801359350610160880135925061018088013567ffffffffffffffff811115610aa9575f80fd5b610ab58a828b01610917565b989b979a50959850939692959293505050565b8035600281900b81146108ec575f80fd5b5f805f806101008587031215610aed575f80fd5b8435610af8816108ca565b9350610b0786602087016108f1565b925060c0850135610b17816108ca565b9150610b2560e08601610ac8565b905092959194509250565b5f8060208385031215610b41575f80fd5b823567ffffffffffffffff811115610b57575f80fd5b610b6385828601610917565b90969095509350505050565b602081525f82518060208401528060208501604085015e5f604082850101526040601f19601f83011684010191505092915050565b5f805f805f806101608789031215610bba575f80fd5b8635610bc5816108ca565b9550610bd488602089016108f1565b9450610be38860c089016109d3565b9350610120870135925061014087013567ffffffffffffffff811115610c07575f80fd5b610c1389828a01610917565b979a9699509497509295939492505050565b5f805f805f806101208789031215610c3b575f80fd5b8635610c46816108ca565b9550610c5588602089016108f1565b945060c0870135935060e0870135925061010087013567ffffffffffffffff811115610c07575f80fd5b8151151581526101c081016020830151610c9d602084018215159052565b506040830151610cb1604084018215159052565b506060830151610cc5606084018215159052565b506080830151610cd9608084018215159052565b5060a0830151610ced60a084018215159052565b5060c0830151610d0160c084018215159052565b5060e0830151610d1560e084018215159052565b50610100830151610d2b61010084018215159052565b50610120830151610d4161012084018215159052565b50610140830151610d5761014084018215159052565b50610160830151610d6d61016084018215159052565b50610180830151610d8361018084018215159052565b506101a0830151610d996101a084018215159052565b5092915050565b5f805f60e08486031215610db2575f80fd5b8335610dbd816108ca565b9250610dcc85602086016108f1565b915060c0840135610ddc816108ca565b809150509250925092565b5f60208284031215610df7575f80fd5b5035919050565b803562ffffff811681146108ec575f80fd5b60c081018335610e1f816108ca565b6001600160a01b031682526020840135610e38816108ca565b6001600160a01b0316602083015262ffffff610e5660408601610dfe565b166040830152610e6860608501610ac8565b60020b60608301526080840135610e7e816108ca565b6001600160a01b0316608083015262ffffff9290921660a090910152919050565b5f60a0828403128015610eb0575f80fd5b5060405160a0810167ffffffffffffffff81118282101715610ee057634e487b7160e01b5f52604160045260245ffd5b604052610eec836108e1565b8152610efa602084016108e1565b6020820152610f0b60408401610dfe565b6040820152610f1c60608401610ac8565b6060820152610f2d608084016108e1565b60808201529392505050565b5f60208284031215610f49575f80fd5b61064082610dfe565b634e487b7160e01b5f52601160045260245ffd5b6001600160801b038181168382160290811690818114610d9957610d99610f52565b634e487b7160e01b5f52601260045260245ffd5b5f6001600160801b03831680610fb457610fb4610f88565b806001600160801b0384160491505092915050565b5f62ffffff831680610fdd57610fdd610f88565b8062ffffff84160491505092915050565b62ffffff8181168382160290811690818114610d9957610d99610f52565b818382375f9101908152919050565b6001600160681b03818116838216019081111561064357610643610f52565b6001600160801b03818116838216019081111561064357610643610f52565b5f6001600160681b0382166001600160681b03810361107a5761107a610f52565b6001019291505056fea264697066735822122098c699d5505caec0d1cdbbebd15e1b89e593aa0841eda37fe7bb08a9fe88e0c464736f6c634300081a0033","linkReferences":{}},"methodIdentifiers":{"BASE_FEE()":"3d18651e","afterAddLiquidity(address,(address,address,uint24,int24,address),(int24,int24,int256,bytes32),int256,int256,bytes)":"9f063efc","afterDonate(address,(address,address,uint24,int24,address),uint256,uint256,bytes)":"e1b4af69","afterInitialize(address,(address,address,uint24,int24,address),uint160,int24)":"6fe7e6eb","afterRemoveLiquidity(address,(address,address,uint24,int24,address),(int24,int24,int256,bytes32),int256,int256,bytes)":"6c2bbe7e","afterSwap(address,(address,address,uint24,int24,address),(bool,int256,uint160),int256,bytes)":"b47b2fb1","beforeAddLiquidity(address,(address,address,uint24,int24,address),(int24,int24,int256,bytes32),bytes)":"259982e5","beforeDonate(address,(address,address,uint24,int24,address),uint256,uint256,bytes)":"b6a8b0fa","beforeInitialize(address,(address,address,uint24,int24,address),uint160)":"dc98354e","beforeRemoveLiquidity(address,(address,address,uint24,int24,address),(int24,int24,int256,bytes32),bytes)":"21d0ee70","beforeSwap(address,(address,address,uint24,int24,address),(bool,int256,uint160),bytes)":"575e24b4","getHookPermissions()":"c4e833ce","lastTicks(bytes32)":"e4cbfea5","movingAverageGasPrice()":"9a161daa","movingAverageGasPriceCount()":"cd2c70e8","poolManager()":"dc4c90d3","unlockCallback(bytes)":"91dd7346"},"id":103}