{"abi":[{"type":"constructor","inputs":[{"name":"_poolManager","type":"address","internalType":"contract IPoolManager"}],"stateMutability":"nonpayable"},{"type":"function","name":"afterAddLiquidity","inputs":[{"name":"","type":"address","internalType":"address"},{"name":"","type":"tuple","internalType":"struct PoolKey","components":[{"name":"currency0","type":"address","internalType":"Currency"},{"name":"currency1","type":"address","internalType":"Currency"},{"name":"fee","type":"uint24","internalType":"uint24"},{"name":"tickSpacing","type":"int24","internalType":"int24"},{"name":"hooks","type":"address","internalType":"contract IHooks"}]},{"name":"","type":"tuple","internalType":"struct IPoolManager.ModifyLiquidityParams","components":[{"name":"tickLower","type":"int24","internalType":"int24"},{"name":"tickUpper","type":"int24","internalType":"int24"},{"name":"liquidityDelta","type":"int256","internalType":"int256"},{"name":"salt","type":"bytes32","internalType":"bytes32"}]},{"name":"","type":"int256","internalType":"BalanceDelta"},{"name":"","type":"int256","internalType":"BalanceDelta"},{"name":"","type":"bytes","internalType":"bytes"}],"outputs":[{"name":"","type":"bytes4","internalType":"bytes4"},{"name":"","type":"int256","internalType":"BalanceDelta"}],"stateMutability":"nonpayable"},{"type":"function","name":"afterDonate","inputs":[{"name":"","type":"address","internalType":"address"},{"name":"","type":"tuple","internalType":"struct PoolKey","components":[{"name":"currency0","type":"address","internalType":"Currency"},{"name":"currency1","type":"address","internalType":"Currency"},{"name":"fee","type":"uint24","internalType":"uint24"},{"name":"tickSpacing","type":"int24","internalType":"int24"},{"name":"hooks","type":"address","internalType":"contract IHooks"}]},{"name":"","type":"uint256","internalType":"uint256"},{"name":"","type":"uint256","internalType":"uint256"},{"name":"","type":"bytes","internalType":"bytes"}],"outputs":[{"name":"","type":"bytes4","internalType":"bytes4"}],"stateMutability":"nonpayable"},{"type":"function","name":"afterInitialize","inputs":[{"name":"","type":"address","internalType":"address"},{"name":"","type":"tuple","internalType":"struct PoolKey","components":[{"name":"currency0","type":"address","internalType":"Currency"},{"name":"currency1","type":"address","internalType":"Currency"},{"name":"fee","type":"uint24","internalType":"uint24"},{"name":"tickSpacing","type":"int24","internalType":"int24"},{"name":"hooks","type":"address","internalType":"contract IHooks"}]},{"name":"","type":"uint160","internalType":"uint160"},{"name":"","type":"int24","internalType":"int24"}],"outputs":[{"name":"","type":"bytes4","internalType":"bytes4"}],"stateMutability":"nonpayable"},{"type":"function","name":"afterRemoveLiquidity","inputs":[{"name":"","type":"address","internalType":"address"},{"name":"","type":"tuple","internalType":"struct PoolKey","components":[{"name":"currency0","type":"address","internalType":"Currency"},{"name":"currency1","type":"address","internalType":"Currency"},{"name":"fee","type":"uint24","internalType":"uint24"},{"name":"tickSpacing","type":"int24","internalType":"int24"},{"name":"hooks","type":"address","internalType":"contract IHooks"}]},{"name":"","type":"tuple","internalType":"struct IPoolManager.ModifyLiquidityParams","components":[{"name":"tickLower","type":"int24","internalType":"int24"},{"name":"tickUpper","type":"int24","internalType":"int24"},{"name":"liquidityDelta","type":"int256","internalType":"int256"},{"name":"salt","type":"bytes32","internalType":"bytes32"}]},{"name":"","type":"int256","internalType":"BalanceDelta"},{"name":"","type":"int256","internalType":"BalanceDelta"},{"name":"","type":"bytes","internalType":"bytes"}],"outputs":[{"name":"","type":"bytes4","internalType":"bytes4"},{"name":"","type":"int256","internalType":"BalanceDelta"}],"stateMutability":"nonpayable"},{"type":"function","name":"afterSwap","inputs":[{"name":"","type":"address","internalType":"address"},{"name":"","type":"tuple","internalType":"struct PoolKey","components":[{"name":"currency0","type":"address","internalType":"Currency"},{"name":"currency1","type":"address","internalType":"Currency"},{"name":"fee","type":"uint24","internalType":"uint24"},{"name":"tickSpacing","type":"int24","internalType":"int24"},{"name":"hooks","type":"address","internalType":"contract IHooks"}]},{"name":"","type":"tuple","internalType":"struct IPoolManager.SwapParams","components":[{"name":"zeroForOne","type":"bool","internalType":"bool"},{"name":"amountSpecified","type":"int256","internalType":"int256"},{"name":"sqrtPriceLimitX96","type":"uint160","internalType":"uint160"}]},{"name":"","type":"int256","internalType":"BalanceDelta"},{"name":"","type":"bytes","internalType":"bytes"}],"outputs":[{"name":"","type":"bytes4","internalType":"bytes4"},{"name":"","type":"int128","internalType":"int128"}],"stateMutability":"pure"},{"type":"function","name":"beforeAddLiquidity","inputs":[{"name":"","type":"address","internalType":"address"},{"name":"","type":"tuple","internalType":"struct PoolKey","components":[{"name":"currency0","type":"address","internalType":"Currency"},{"name":"currency1","type":"address","internalType":"Currency"},{"name":"fee","type":"uint24","internalType":"uint24"},{"name":"tickSpacing","type":"int24","internalType":"int24"},{"name":"hooks","type":"address","internalType":"contract IHooks"}]},{"name":"","type":"tuple","internalType":"struct IPoolManager.ModifyLiquidityParams","components":[{"name":"tickLower","type":"int24","internalType":"int24"},{"name":"tickUpper","type":"int24","internalType":"int24"},{"name":"liquidityDelta","type":"int256","internalType":"int256"},{"name":"salt","type":"bytes32","internalType":"bytes32"}]},{"name":"","type":"bytes","internalType":"bytes"}],"outputs":[{"name":"","type":"bytes4","internalType":"bytes4"}],"stateMutability":"nonpayable"},{"type":"function","name":"beforeDonate","inputs":[{"name":"","type":"address","internalType":"address"},{"name":"","type":"tuple","internalType":"struct PoolKey","components":[{"name":"currency0","type":"address","internalType":"Currency"},{"name":"currency1","type":"address","internalType":"Currency"},{"name":"fee","type":"uint24","internalType":"uint24"},{"name":"tickSpacing","type":"int24","internalType":"int24"},{"name":"hooks","type":"address","internalType":"contract IHooks"}]},{"name":"","type":"uint256","internalType":"uint256"},{"name":"","type":"uint256","internalType":"uint256"},{"name":"","type":"bytes","internalType":"bytes"}],"outputs":[{"name":"","type":"bytes4","internalType":"bytes4"}],"stateMutability":"nonpayable"},{"type":"function","name":"beforeInitialize","inputs":[{"name":"","type":"address","internalType":"address"},{"name":"","type":"tuple","internalType":"struct PoolKey","components":[{"name":"currency0","type":"address","internalType":"Currency"},{"name":"currency1","type":"address","internalType":"Currency"},{"name":"fee","type":"uint24","internalType":"uint24"},{"name":"tickSpacing","type":"int24","internalType":"int24"},{"name":"hooks","type":"address","internalType":"contract IHooks"}]},{"name":"","type":"uint160","internalType":"uint160"}],"outputs":[{"name":"","type":"bytes4","internalType":"bytes4"}],"stateMutability":"nonpayable"},{"type":"function","name":"beforeRemoveLiquidity","inputs":[{"name":"","type":"address","internalType":"address"},{"name":"","type":"tuple","internalType":"struct PoolKey","components":[{"name":"currency0","type":"address","internalType":"Currency"},{"name":"currency1","type":"address","internalType":"Currency"},{"name":"fee","type":"uint24","internalType":"uint24"},{"name":"tickSpacing","type":"int24","internalType":"int24"},{"name":"hooks","type":"address","internalType":"contract IHooks"}]},{"name":"","type":"tuple","internalType":"struct IPoolManager.ModifyLiquidityParams","components":[{"name":"tickLower","type":"int24","internalType":"int24"},{"name":"tickUpper","type":"int24","internalType":"int24"},{"name":"liquidityDelta","type":"int256","internalType":"int256"},{"name":"salt","type":"bytes32","internalType":"bytes32"}]},{"name":"","type":"bytes","internalType":"bytes"}],"outputs":[{"name":"","type":"bytes4","internalType":"bytes4"}],"stateMutability":"nonpayable"},{"type":"function","name":"beforeSwap","inputs":[{"name":"","type":"address","internalType":"address"},{"name":"poolKey","type":"tuple","internalType":"struct PoolKey","components":[{"name":"currency0","type":"address","internalType":"Currency"},{"name":"currency1","type":"address","internalType":"Currency"},{"name":"fee","type":"uint24","internalType":"uint24"},{"name":"tickSpacing","type":"int24","internalType":"int24"},{"name":"hooks","type":"address","internalType":"contract IHooks"}]},{"name":"params","type":"tuple","internalType":"struct IPoolManager.SwapParams","components":[{"name":"zeroForOne","type":"bool","internalType":"bool"},{"name":"amountSpecified","type":"int256","internalType":"int256"},{"name":"sqrtPriceLimitX96","type":"uint160","internalType":"uint160"}]},{"name":"","type":"bytes","internalType":"bytes"}],"outputs":[{"name":"","type":"bytes4","internalType":"bytes4"},{"name":"","type":"int256","internalType":"BeforeSwapDelta"},{"name":"","type":"uint24","internalType":"uint24"}],"stateMutability":"nonpayable"},{"type":"function","name":"getHookPermissions","inputs":[],"outputs":[{"name":"","type":"tuple","internalType":"struct Hooks.Permissions","components":[{"name":"beforeInitialize","type":"bool","internalType":"bool"},{"name":"afterInitialize","type":"bool","internalType":"bool"},{"name":"beforeAddLiquidity","type":"bool","internalType":"bool"},{"name":"afterAddLiquidity","type":"bool","internalType":"bool"},{"name":"beforeRemoveLiquidity","type":"bool","internalType":"bool"},{"name":"afterRemoveLiquidity","type":"bool","internalType":"bool"},{"name":"beforeSwap","type":"bool","internalType":"bool"},{"name":"afterSwap","type":"bool","internalType":"bool"},{"name":"beforeDonate","type":"bool","internalType":"bool"},{"name":"afterDonate","type":"bool","internalType":"bool"},{"name":"beforeSwapReturnDelta","type":"bool","internalType":"bool"},{"name":"afterSwapReturnDelta","type":"bool","internalType":"bool"},{"name":"afterAddLiquidityReturnDelta","type":"bool","internalType":"bool"},{"name":"afterRemoveLiquidityReturnDelta","type":"bool","internalType":"bool"}]}],"stateMutability":"pure"},{"type":"function","name":"getPoolKeyHash","inputs":[{"name":"poolKey","type":"tuple","internalType":"struct PoolKey","components":[{"name":"currency0","type":"address","internalType":"Currency"},{"name":"currency1","type":"address","internalType":"Currency"},{"name":"fee","type":"uint24","internalType":"uint24"},{"name":"tickSpacing","type":"int24","internalType":"int24"},{"name":"hooks","type":"address","internalType":"contract IHooks"}]}],"outputs":[{"name":"","type":"bytes32","internalType":"bytes32"}],"stateMutability":"pure"},{"type":"function","name":"getTickFromSqrtPrice","inputs":[{"name":"sqrtPriceX96","type":"uint160","internalType":"uint160"}],"outputs":[{"name":"tickValue","type":"int24","internalType":"int24"}],"stateMutability":"pure"},{"type":"function","name":"getTickSpacingValue","inputs":[{"name":"tickSpacing","type":"uint8","internalType":"enum PoolPartyDynamicShieldHook.TickSpacing"}],"outputs":[{"name":"","type":"int24","internalType":"int24"}],"stateMutability":"pure"},{"type":"function","name":"initializeShieldTokenHolder","inputs":[{"name":"poolKey","type":"tuple","internalType":"struct PoolKey","components":[{"name":"currency0","type":"address","internalType":"Currency"},{"name":"currency1","type":"address","internalType":"Currency"},{"name":"fee","type":"uint24","internalType":"uint24"},{"name":"tickSpacing","type":"int24","internalType":"int24"},{"name":"hooks","type":"address","internalType":"contract IHooks"}]},{"name":"tickSpacing","type":"uint8","internalType":"enum PoolPartyDynamicShieldHook.TickSpacing"},{"name":"feeInit","type":"uint24","internalType":"uint24"},{"name":"feeMax","type":"uint24","internalType":"uint24"},{"name":"tokenId","type":"uint256","internalType":"uint256"}],"outputs":[],"stateMutability":"nonpayable"},{"type":"function","name":"lastFees","inputs":[{"name":"","type":"bytes32","internalType":"bytes32"}],"outputs":[{"name":"","type":"uint24","internalType":"uint24"}],"stateMutability":"view"},{"type":"function","name":"lastTicks","inputs":[{"name":"","type":"bytes32","internalType":"bytes32"}],"outputs":[{"name":"","type":"int24","internalType":"int24"}],"stateMutability":"view"},{"type":"function","name":"poolManager","inputs":[],"outputs":[{"name":"","type":"address","internalType":"contract IPoolManager"}],"stateMutability":"view"},{"type":"function","name":"shieldInfos","inputs":[{"name":"","type":"bytes32","internalType":"bytes32"}],"outputs":[{"name":"tickSpacing","type":"uint8","internalType":"enum PoolPartyDynamicShieldHook.TickSpacing"},{"name":"feeInit","type":"uint24","internalType":"uint24"},{"name":"feeMax","type":"uint24","internalType":"uint24"},{"name":"tokenId","type":"uint256","internalType":"uint256"}],"stateMutability":"view"},{"type":"function","name":"unlockCallback","inputs":[{"name":"data","type":"bytes","internalType":"bytes"}],"outputs":[{"name":"","type":"bytes","internalType":"bytes"}],"stateMutability":"nonpayable"},{"type":"error","name":"HookNotImplemented","inputs":[]},{"type":"error","name":"InvalidPool","inputs":[]},{"type":"error","name":"LockFailure","inputs":[]},{"type":"error","name":"NotPoolManager","inputs":[]},{"type":"error","name":"NotSelf","inputs":[]}],"bytecode":{"object":"0x60a060405234801561000f575f80fd5b50604051611d10380380611d1083398101604081905261002e916102a4565b6001600160a01b038116608052806100453061004c565b50506102d1565b61013c81610137604080516101c0810182525f80825260208201819052918101829052606081018290526080810182905260a0810182905260c0810182905260e08101829052610100810182905261012081018290526101408101829052610160810182905261018081018290526101a081019190915250604080516101c0810182525f80825260208201819052918101829052606081018290526080810182905260a08101829052600160c0820181905260e0820152610100810182905261012081018290526101408101829052610160810182905261018081018290526101a081019190915290565b61013f565b50565b80511515612000831615151415806101635750602081015115156110008316151514155b8061017a5750604081015115156108008316151514155b806101915750606081015115156104008316151514155b806101a85750608081015115156102008316151514155b806101bf575060a081015115156101008316151514155b806101d5575060c0810151151560808316151514155b806101eb575060e0810151151560408316151514155b806102025750610100810151151560208316151514155b806102195750610120810151151560108316151514155b806102305750610140810151151560088316151514155b806102475750610160810151151560048316151514155b8061025e5750610180810151151560028316151514155b8061027557506101a0810151151560018316151514155b1561028b5761028b630732d7b560e51b8361028f565b5050565b815f526001600160a01b03811660045260245ffd5b5f602082840312156102b4575f80fd5b81516001600160a01b03811681146102ca575f80fd5b9392505050565b608051611a126102fe5f395f818161042a015281816106040152818161067601526107220152611a125ff3fe608060405234801561000f575f80fd5b5060043610610163575f3560e01c8063a51eaee3116100c7578063dc4c90d31161007d578063e1b4af6911610063578063e1b4af6914610310578063e4cbfea514610472578063f67aacb514610494575f80fd5b8063dc4c90d314610425578063dc98354e14610464575f80fd5b8063b6a8b0fa116100ad578063b6a8b0fa14610310578063c4e833ce1461031e578063c7f7255b14610412575f80fd5b8063a51eaee3146102b6578063b47b2fb1146102cb575f80fd5b8063575e24b41161011c5780636fe7e6eb116101025780636fe7e6eb1461028857806391dd7346146102965780639f063efc14610255575f80fd5b8063575e24b4146102175780636c2bbe7e14610255575f80fd5b8063259982e51161014c578063259982e51461018d57806340cf7f9b146101b95780634fb08954146101f1575f80fd5b806301d680341461016757806321d0ee701461018d575b5f80fd5b61017a6101753660046111e8565b6104e6565b6040519081526020015b60405180910390f35b6101a061019b36600461126e565b610540565b6040516001600160e01b03199091168152602001610184565b6101dd6101c73660046112e5565b60026020525f908152604090205462ffffff1681565b60405162ffffff9091168152602001610184565b6102046101ff3660046112fc565b61055a565b60405160029190910b8152602001610184565b61022a610225366004611327565b6105f6565b604080516001600160e01b03199094168452602084019290925262ffffff1690820152606001610184565b610268610263366004611381565b6106fa565b604080516001600160e01b03199093168352602083019190915201610184565b6101a061019b366004611422565b6102a96102a4366004611479565b610715565b60405161018491906114b8565b6102c96102c436600461150d565b610771565b005b6102ed6102d9366004611568565b63b47b2fb160e01b5f965096945050505050565b604080516001600160e01b03199093168352600f9190910b602083015201610184565b6101a061019b3660046115e9565b610405604080516101c0810182525f80825260208201819052918101829052606081018290526080810182905260a0810182905260c0810182905260e08101829052610100810182905261012081018290526101408101829052610160810182905261018081018290526101a081019190915250604080516101c0810182525f80825260208201819052918101829052606081018290526080810182905260a08101829052600160c0820181905260e0820152610100810182905261012081018290526101408101829052610160810182905261018081018290526101a081019190915290565b6040516101849190611643565b610204610420366004611764565b61083c565b61044c7f000000000000000000000000000000000000000000000000000000000000000081565b6040516001600160a01b039091168152602001610184565b6101a061019b36600461177d565b6102046104803660046112e5565b60016020525f908152604090205460020b81565b6104d66104a23660046112e5565b5f602081905290815260409020805460019091015460ff82169162ffffff6101008204811692640100000000909204169084565b60405161018494939291906117d8565b5f6104f460208301836112fc565b61050460408401602085016112fc565b604080516001600160a01b0393841660208201529290911690820152606001604051602081830303815290604052805190602001209050919050565b5f604051630a85dc2960e01b815260040160405180910390fd5b5f6401000276a36001600160a01b03831610801590610596575073fffd8963efd1fc6a506488495d951d5263988d266001600160a01b03831611155b6105e75760405162461bcd60e51b815260206004820152601960248201527f737172745072696365583936206f7574206f662072616e67650000000000000060448201526064015b60405180910390fd5b6105f0826108e7565b92915050565b5f8080336001600160a01b037f000000000000000000000000000000000000000000000000000000000000000016146106425760405163570c108560e11b815260040160405180910390fd5b5f61065c8861065760608a0160408b016112fc565b610b84565b604051635275965160e01b81529091506001600160a01b037f000000000000000000000000000000000000000000000000000000000000000016906352759651906106ad908b908590600401611817565b5f604051808303815f87803b1580156106c4575f80fd5b505af11580156106d6573d5f803e3d5ffd5b506315d7892d60e21b9c5f9c5062400000949094179a509298505050505050505050565b5f80604051630a85dc2960e01b815260040160405180910390fd5b6060336001600160a01b037f000000000000000000000000000000000000000000000000000000000000000016146107605760405163570c108560e11b815260040160405180910390fd5b61076a8383610dbc565b9392505050565b5f61077b866104e6565b9050604051806080016040528086600281111561079a5761079a6117c4565b815262ffffff80871660208084019190915290861660408084019190915260609092018590525f848152908190522081518154829060ff191660018360028111156107e7576107e76117c4565b021790555060208201518154604084015162ffffff9081166401000000000266ffffff000000001991909316610100021666ffffffffffff001990911617178155606090910151600190910155505050505050565b5f80826002811115610850576108506117c4565b0361085d5750600a919050565b6001826002811115610871576108716117c4565b0361087e57506032919050565b6002826002811115610892576108926117c4565b0361089f575060c8919050565b60405162461bcd60e51b815260206004820152601360248201527f496e76616c6964205469636b53706163696e670000000000000000000000000060448201526064016105de565b5f73fffd8963efd1fc6a506488495d951d51639616826401000276a21983016001600160a01b03161115610926576109266318521d4960e21b83610e55565b77ffffffffffffffffffffffffffffffffffffffff00000000602083901b16805f61095082610e6a565b60ff1690506080811061096b57607f810383901c9150610975565b80607f0383901b91505b908002607f81811c60ff83811c9190911c800280831c81831c1c800280841c81841c1c800280851c81851c1c800280861c81861c1c800280871c81871c1c800280881c81881c1c800280891c81891c1c8002808a1c818a1c1c8002808b1c818b1c1c8002808c1c818c1c1c8002808d1c818d1c1c8002808e1c9c81901c9c909c1c80029c8d901c9e9d607f198f0160401b60c09190911c678000000000000000161760c19b909b1c674000000000000000169a909a1760c29990991c672000000000000000169890981760c39790971c671000000000000000169690961760c49590951c670800000000000000169490941760c59390931c670400000000000000169290921760c69190911c670200000000000000161760c79190911c670100000000000000161760c89190911c6680000000000000161760c99190911c6640000000000000161760ca9190911c6620000000000000161760cb9190911c6610000000000000161760cc9190911c6608000000000000161760cd9190911c66040000000000001617693627a301d71055774c8581026f028f6481ab7f045a5af012a19d003aa9198101608090811d906fdb2df09e81959a81455e260799a0632f8301901d600281810b9083900b14610b7557886001600160a01b0316610b5a82610efe565b6001600160a01b03161115610b6f5781610b77565b80610b77565b815b9998505050505050505050565b5f80610b8f846104e6565b9050825f610b9c8261055a565b5f84815260016020526040812054919250600291820b9183900b8212610bcb57610bc683836118ba565b610bd5565b610bd582846118ba565b90505f8160020b1215610c2a5760405162461bcd60e51b815260206004820152601c60248201527f646966665469636b732063616e6e6f74206265206e656761746976650000000060448201526064016105de565b5f85815260208190526040812054610c449060ff1661083c565b90505f81610c5281876118f3565b610c5c919061192b565b90505f610c69838361194a565b90505f8260020b8260020b13610c8857610c8382846118ba565b610c92565b610c9283836118ba565b905060028160020b12610ca55780610ca8565b60025b5f8a81526020819052604090205490915062ffffff610100820481169164010000000090041681811015610d445760405162461bcd60e51b815260206004820152602f60248201527f6665654d6178206d7573742062652067726561746572207468616e206f72206560448201527f7175616c20746f20696e6974466565000000000000000000000000000000000060648201526084016105de565b5f610d506002856118f3565b610d5a848461196f565b610d64919061198a565b610d6e90896119af565b5f9c8d52600260209081526040808f20805462ffffff80861662ffffff199283161790925560019093529e2080549c909e169b169a909a17909b555096995050505050505050505092915050565b60605f80306001600160a01b03168585604051610dda9291906119cd565b5f604051808303815f865af19150503d805f8114610e13576040519150601f19603f3d011682016040523d82523d5f602084013e610e18565b606091505b50915091508115610e2c5791506105f09050565b80515f03610e4d576040516314815f4760e31b815260040160405180910390fd5b805160208201fd5b815f526001600160a01b03811660045260245ffd5b5f808211610e76575f80fd5b507f0706060506020500060203020504000106050205030304010505030400000000601f6f8421084210842108cc6318c6db6d54be6fffffffffffffffffffffffffffffffff841160071b84811c67ffffffffffffffff1060061b1784811c63ffffffff1060051b1784811c61ffff1060041b1784811c60ff1060031b1793841c1c161a1790565b60020b5f60ff82901d80830118620d89e8811115610f2757610f276345c3193d60e11b846111c3565b7001fffcb933bd6fad37aa2d162d1a5940016001821602700100000000000000000000000000000000186002821615610f70576ffff97272373d413259a46990580e213a0260801c5b6004821615610f8f576ffff2e50f5f656932ef12357cf3c7fdcc0260801c5b6008821615610fae576fffe5caca7e10e4e61c3624eaa0941cd00260801c5b6010821615610fcd576fffcb9843d60f6159c9db58835c9266440260801c5b6020821615610fec576fff973b41fa98c081472e6896dfb254c00260801c5b604082161561100b576fff2ea16466c96a3843ec78b326b528610260801c5b608082161561102a576ffe5dee046a99a2a811c461f1969c30530260801c5b61010082161561104a576ffcbe86c7900a88aedcffc83b479aa3a40260801c5b61020082161561106a576ff987a7253ac413176f2b074cf7815e540260801c5b61040082161561108a576ff3392b0822b70005940c7a398e4b70f30260801c5b6108008216156110aa576fe7159475a2c29b7443b29c7fa6e889d90260801c5b6110008216156110ca576fd097f3bdfd2022b8845ad8f792aa58250260801c5b6120008216156110ea576fa9f746462d870fdf8a65dc1f90e061e50260801c5b61400082161561110a576f70d869a156d2a1b890bb3df62baf32f70260801c5b61800082161561112a576f31be135f97d08fd981231505542fcfa60260801c5b6201000082161561114b576f09aa508b5b7a84e1c677de54f3e99bc90260801c5b6202000082161561116b576e5d6af8dedb81196699c329225ee6040260801c5b6204000082161561118a576d2216e584f5fa1ea926041bedfe980260801c5b620800008216156111a7576b048a170391f7dc42444e8fa20260801c5b5f8413156111b3575f19045b63ffffffff0160201c9392505050565b815f528060020b60045260245ffd5b5f60a082840312156111e2575f80fd5b50919050565b5f60a082840312156111f8575f80fd5b61076a83836111d2565b6001600160a01b0381168114611216575f80fd5b50565b5f608082840312156111e2575f80fd5b5f8083601f840112611239575f80fd5b50813567ffffffffffffffff811115611250575f80fd5b602083019150836020828501011115611267575f80fd5b9250929050565b5f805f805f6101608688031215611283575f80fd5b853561128e81611202565b945061129d87602088016111d2565b93506112ac8760c08801611219565b925061014086013567ffffffffffffffff8111156112c8575f80fd5b6112d488828901611229565b969995985093965092949392505050565b5f602082840312156112f5575f80fd5b5035919050565b5f6020828403121561130c575f80fd5b813561076a81611202565b5f606082840312156111e2575f80fd5b5f805f805f610140868803121561133c575f80fd5b853561134781611202565b945061135687602088016111d2565b93506113658760c08801611317565b925061012086013567ffffffffffffffff8111156112c8575f80fd5b5f805f805f805f6101a0888a031215611398575f80fd5b87356113a381611202565b96506113b28960208a016111d2565b95506113c18960c08a01611219565b94506101408801359350610160880135925061018088013567ffffffffffffffff8111156113ed575f80fd5b6113f98a828b01611229565b989b979a50959850939692959293505050565b8035600281900b811461141d575f80fd5b919050565b5f805f806101008587031215611436575f80fd5b843561144181611202565b935061145086602087016111d2565b925060c085013561146081611202565b915061146e60e0860161140c565b905092959194509250565b5f806020838503121561148a575f80fd5b823567ffffffffffffffff8111156114a0575f80fd5b6114ac85828601611229565b90969095509350505050565b602081525f82518060208401528060208501604085015e5f604082850101526040601f19601f83011684010191505092915050565b80356003811061141d575f80fd5b803562ffffff8116811461141d575f80fd5b5f805f805f6101208688031215611522575f80fd5b61152c87876111d2565b945061153a60a087016114ed565b935061154860c087016114fb565b925061155660e087016114fb565b94979396509194610100013592915050565b5f805f805f80610160878903121561157e575f80fd5b863561158981611202565b955061159888602089016111d2565b94506115a78860c08901611317565b9350610120870135925061014087013567ffffffffffffffff8111156115cb575f80fd5b6115d789828a01611229565b979a9699509497509295939492505050565b5f805f805f8061012087890312156115ff575f80fd5b863561160a81611202565b955061161988602089016111d2565b945060c0870135935060e0870135925061010087013567ffffffffffffffff8111156115cb575f80fd5b8151151581526101c081016020830151611661602084018215159052565b506040830151611675604084018215159052565b506060830151611689606084018215159052565b50608083015161169d608084018215159052565b5060a08301516116b160a084018215159052565b5060c08301516116c560c084018215159052565b5060e08301516116d960e084018215159052565b506101008301516116ef61010084018215159052565b5061012083015161170561012084018215159052565b5061014083015161171b61014084018215159052565b5061016083015161173161016084018215159052565b5061018083015161174761018084018215159052565b506101a083015161175d6101a084018215159052565b5092915050565b5f60208284031215611774575f80fd5b61076a826114ed565b5f805f60e0848603121561178f575f80fd5b833561179a81611202565b92506117a985602086016111d2565b915060c08401356117b981611202565b809150509250925092565b634e487b7160e01b5f52602160045260245ffd5b60808101600386106117f857634e487b7160e01b5f52602160045260245ffd5b94815262ffffff93841660208201529190921660408201526060015290565b60c08101833561182681611202565b6001600160a01b03168252602084013561183f81611202565b6001600160a01b0316602083015262ffffff61185d604086016114fb565b16604083015261186f6060850161140c565b60020b6060830152608084013561188581611202565b6001600160a01b0316608083015262ffffff9290921660a090910152919050565b634e487b7160e01b5f52601160045260245ffd5b600282810b9082900b03627fffff198112627fffff821317156105f0576105f06118a6565b634e487b7160e01b5f52601260045260245ffd5b5f8160020b8360020b80611909576119096118df565b627fffff1982145f1982141615611922576119226118a6565b90059392505050565b5f8260020b8260020b028060020b915080821461175d5761175d6118a6565b600281810b9083900b01627fffff8113627fffff19821217156105f0576105f06118a6565b62ffffff82811682821603908111156105f0576105f06118a6565b5f62ffffff83168061199e5761199e6118df565b8062ffffff84160491505092915050565b62ffffff818116838216029081169081811461175d5761175d6118a6565b818382375f910190815291905056fea2646970667358221220d2453f33f313c32918949d4e8c1fb14e3d62f504aecb7513105731f74bd3c33564736f6c634300081a0033","linkReferences":{}},"methodIdentifiers":{"afterAddLiquidity(address,(address,address,uint24,int24,address),(int24,int24,int256,bytes32),int256,int256,bytes)":"9f063efc","afterDonate(address,(address,address,uint24,int24,address),uint256,uint256,bytes)":"e1b4af69","afterInitialize(address,(address,address,uint24,int24,address),uint160,int24)":"6fe7e6eb","afterRemoveLiquidity(address,(address,address,uint24,int24,address),(int24,int24,int256,bytes32),int256,int256,bytes)":"6c2bbe7e","afterSwap(address,(address,address,uint24,int24,address),(bool,int256,uint160),int256,bytes)":"b47b2fb1","beforeAddLiquidity(address,(address,address,uint24,int24,address),(int24,int24,int256,bytes32),bytes)":"259982e5","beforeDonate(address,(address,address,uint24,int24,address),uint256,uint256,bytes)":"b6a8b0fa","beforeInitialize(address,(address,address,uint24,int24,address),uint160)":"dc98354e","beforeRemoveLiquidity(address,(address,address,uint24,int24,address),(int24,int24,int256,bytes32),bytes)":"21d0ee70","beforeSwap(address,(address,address,uint24,int24,address),(bool,int256,uint160),bytes)":"575e24b4","getHookPermissions()":"c4e833ce","getPoolKeyHash((address,address,uint24,int24,address))":"01d68034","getTickFromSqrtPrice(uint160)":"4fb08954","getTickSpacingValue(uint8)":"c7f7255b","initializeShieldTokenHolder((address,address,uint24,int24,address),uint8,uint24,uint24,uint256)":"a51eaee3","lastFees(bytes32)":"40cf7f9b","lastTicks(bytes32)":"e4cbfea5","poolManager()":"dc4c90d3","shieldInfos(bytes32)":"f67aacb5","unlockCallback(bytes)":"91dd7346"},"id":28}