{"abi":[{"type":"constructor","inputs":[{"name":"_manager","type":"address","internalType":"contract IPoolManager"},{"name":"_uri","type":"string","internalType":"string"}],"stateMutability":"nonpayable"},{"type":"function","name":"afterAddLiquidity","inputs":[{"name":"","type":"address","internalType":"address"},{"name":"","type":"tuple","internalType":"struct PoolKey","components":[{"name":"currency0","type":"address","internalType":"Currency"},{"name":"currency1","type":"address","internalType":"Currency"},{"name":"fee","type":"uint24","internalType":"uint24"},{"name":"tickSpacing","type":"int24","internalType":"int24"},{"name":"hooks","type":"address","internalType":"contract IHooks"}]},{"name":"","type":"tuple","internalType":"struct IPoolManager.ModifyLiquidityParams","components":[{"name":"tickLower","type":"int24","internalType":"int24"},{"name":"tickUpper","type":"int24","internalType":"int24"},{"name":"liquidityDelta","type":"int256","internalType":"int256"},{"name":"salt","type":"bytes32","internalType":"bytes32"}]},{"name":"","type":"int256","internalType":"BalanceDelta"},{"name":"","type":"int256","internalType":"BalanceDelta"},{"name":"","type":"bytes","internalType":"bytes"}],"outputs":[{"name":"","type":"bytes4","internalType":"bytes4"},{"name":"","type":"int256","internalType":"BalanceDelta"}],"stateMutability":"nonpayable"},{"type":"function","name":"afterDonate","inputs":[{"name":"","type":"address","internalType":"address"},{"name":"","type":"tuple","internalType":"struct PoolKey","components":[{"name":"currency0","type":"address","internalType":"Currency"},{"name":"currency1","type":"address","internalType":"Currency"},{"name":"fee","type":"uint24","internalType":"uint24"},{"name":"tickSpacing","type":"int24","internalType":"int24"},{"name":"hooks","type":"address","internalType":"contract IHooks"}]},{"name":"","type":"uint256","internalType":"uint256"},{"name":"","type":"uint256","internalType":"uint256"},{"name":"","type":"bytes","internalType":"bytes"}],"outputs":[{"name":"","type":"bytes4","internalType":"bytes4"}],"stateMutability":"nonpayable"},{"type":"function","name":"afterInitialize","inputs":[{"name":"","type":"address","internalType":"address"},{"name":"key","type":"tuple","internalType":"struct PoolKey","components":[{"name":"currency0","type":"address","internalType":"Currency"},{"name":"currency1","type":"address","internalType":"Currency"},{"name":"fee","type":"uint24","internalType":"uint24"},{"name":"tickSpacing","type":"int24","internalType":"int24"},{"name":"hooks","type":"address","internalType":"contract IHooks"}]},{"name":"","type":"uint160","internalType":"uint160"},{"name":"tick","type":"int24","internalType":"int24"}],"outputs":[{"name":"","type":"bytes4","internalType":"bytes4"}],"stateMutability":"nonpayable"},{"type":"function","name":"afterRemoveLiquidity","inputs":[{"name":"","type":"address","internalType":"address"},{"name":"","type":"tuple","internalType":"struct PoolKey","components":[{"name":"currency0","type":"address","internalType":"Currency"},{"name":"currency1","type":"address","internalType":"Currency"},{"name":"fee","type":"uint24","internalType":"uint24"},{"name":"tickSpacing","type":"int24","internalType":"int24"},{"name":"hooks","type":"address","internalType":"contract IHooks"}]},{"name":"","type":"tuple","internalType":"struct IPoolManager.ModifyLiquidityParams","components":[{"name":"tickLower","type":"int24","internalType":"int24"},{"name":"tickUpper","type":"int24","internalType":"int24"},{"name":"liquidityDelta","type":"int256","internalType":"int256"},{"name":"salt","type":"bytes32","internalType":"bytes32"}]},{"name":"","type":"int256","internalType":"BalanceDelta"},{"name":"","type":"int256","internalType":"BalanceDelta"},{"name":"","type":"bytes","internalType":"bytes"}],"outputs":[{"name":"","type":"bytes4","internalType":"bytes4"},{"name":"","type":"int256","internalType":"BalanceDelta"}],"stateMutability":"nonpayable"},{"type":"function","name":"afterSwap","inputs":[{"name":"sender","type":"address","internalType":"address"},{"name":"key","type":"tuple","internalType":"struct PoolKey","components":[{"name":"currency0","type":"address","internalType":"Currency"},{"name":"currency1","type":"address","internalType":"Currency"},{"name":"fee","type":"uint24","internalType":"uint24"},{"name":"tickSpacing","type":"int24","internalType":"int24"},{"name":"hooks","type":"address","internalType":"contract IHooks"}]},{"name":"params","type":"tuple","internalType":"struct IPoolManager.SwapParams","components":[{"name":"zeroForOne","type":"bool","internalType":"bool"},{"name":"amountSpecified","type":"int256","internalType":"int256"},{"name":"sqrtPriceLimitX96","type":"uint160","internalType":"uint160"}]},{"name":"","type":"int256","internalType":"BalanceDelta"},{"name":"","type":"bytes","internalType":"bytes"}],"outputs":[{"name":"","type":"bytes4","internalType":"bytes4"},{"name":"","type":"int128","internalType":"int128"}],"stateMutability":"nonpayable"},{"type":"function","name":"balanceOf","inputs":[{"name":"account","type":"address","internalType":"address"},{"name":"id","type":"uint256","internalType":"uint256"}],"outputs":[{"name":"","type":"uint256","internalType":"uint256"}],"stateMutability":"view"},{"type":"function","name":"balanceOfBatch","inputs":[{"name":"accounts","type":"address[]","internalType":"address[]"},{"name":"ids","type":"uint256[]","internalType":"uint256[]"}],"outputs":[{"name":"","type":"uint256[]","internalType":"uint256[]"}],"stateMutability":"view"},{"type":"function","name":"beforeAddLiquidity","inputs":[{"name":"","type":"address","internalType":"address"},{"name":"","type":"tuple","internalType":"struct PoolKey","components":[{"name":"currency0","type":"address","internalType":"Currency"},{"name":"currency1","type":"address","internalType":"Currency"},{"name":"fee","type":"uint24","internalType":"uint24"},{"name":"tickSpacing","type":"int24","internalType":"int24"},{"name":"hooks","type":"address","internalType":"contract IHooks"}]},{"name":"","type":"tuple","internalType":"struct IPoolManager.ModifyLiquidityParams","components":[{"name":"tickLower","type":"int24","internalType":"int24"},{"name":"tickUpper","type":"int24","internalType":"int24"},{"name":"liquidityDelta","type":"int256","internalType":"int256"},{"name":"salt","type":"bytes32","internalType":"bytes32"}]},{"name":"","type":"bytes","internalType":"bytes"}],"outputs":[{"name":"","type":"bytes4","internalType":"bytes4"}],"stateMutability":"nonpayable"},{"type":"function","name":"beforeDonate","inputs":[{"name":"","type":"address","internalType":"address"},{"name":"","type":"tuple","internalType":"struct PoolKey","components":[{"name":"currency0","type":"address","internalType":"Currency"},{"name":"currency1","type":"address","internalType":"Currency"},{"name":"fee","type":"uint24","internalType":"uint24"},{"name":"tickSpacing","type":"int24","internalType":"int24"},{"name":"hooks","type":"address","internalType":"contract IHooks"}]},{"name":"","type":"uint256","internalType":"uint256"},{"name":"","type":"uint256","internalType":"uint256"},{"name":"","type":"bytes","internalType":"bytes"}],"outputs":[{"name":"","type":"bytes4","internalType":"bytes4"}],"stateMutability":"nonpayable"},{"type":"function","name":"beforeInitialize","inputs":[{"name":"","type":"address","internalType":"address"},{"name":"","type":"tuple","internalType":"struct PoolKey","components":[{"name":"currency0","type":"address","internalType":"Currency"},{"name":"currency1","type":"address","internalType":"Currency"},{"name":"fee","type":"uint24","internalType":"uint24"},{"name":"tickSpacing","type":"int24","internalType":"int24"},{"name":"hooks","type":"address","internalType":"contract IHooks"}]},{"name":"","type":"uint160","internalType":"uint160"}],"outputs":[{"name":"","type":"bytes4","internalType":"bytes4"}],"stateMutability":"nonpayable"},{"type":"function","name":"beforeRemoveLiquidity","inputs":[{"name":"","type":"address","internalType":"address"},{"name":"","type":"tuple","internalType":"struct PoolKey","components":[{"name":"currency0","type":"address","internalType":"Currency"},{"name":"currency1","type":"address","internalType":"Currency"},{"name":"fee","type":"uint24","internalType":"uint24"},{"name":"tickSpacing","type":"int24","internalType":"int24"},{"name":"hooks","type":"address","internalType":"contract IHooks"}]},{"name":"","type":"tuple","internalType":"struct IPoolManager.ModifyLiquidityParams","components":[{"name":"tickLower","type":"int24","internalType":"int24"},{"name":"tickUpper","type":"int24","internalType":"int24"},{"name":"liquidityDelta","type":"int256","internalType":"int256"},{"name":"salt","type":"bytes32","internalType":"bytes32"}]},{"name":"","type":"bytes","internalType":"bytes"}],"outputs":[{"name":"","type":"bytes4","internalType":"bytes4"}],"stateMutability":"nonpayable"},{"type":"function","name":"beforeSwap","inputs":[{"name":"","type":"address","internalType":"address"},{"name":"","type":"tuple","internalType":"struct PoolKey","components":[{"name":"currency0","type":"address","internalType":"Currency"},{"name":"currency1","type":"address","internalType":"Currency"},{"name":"fee","type":"uint24","internalType":"uint24"},{"name":"tickSpacing","type":"int24","internalType":"int24"},{"name":"hooks","type":"address","internalType":"contract IHooks"}]},{"name":"","type":"tuple","internalType":"struct IPoolManager.SwapParams","components":[{"name":"zeroForOne","type":"bool","internalType":"bool"},{"name":"amountSpecified","type":"int256","internalType":"int256"},{"name":"sqrtPriceLimitX96","type":"uint160","internalType":"uint160"}]},{"name":"","type":"bytes","internalType":"bytes"}],"outputs":[{"name":"","type":"bytes4","internalType":"bytes4"},{"name":"","type":"int256","internalType":"BeforeSwapDelta"},{"name":"","type":"uint24","internalType":"uint24"}],"stateMutability":"nonpayable"},{"type":"function","name":"cancelOrder","inputs":[{"name":"key","type":"tuple","internalType":"struct PoolKey","components":[{"name":"currency0","type":"address","internalType":"Currency"},{"name":"currency1","type":"address","internalType":"Currency"},{"name":"fee","type":"uint24","internalType":"uint24"},{"name":"tickSpacing","type":"int24","internalType":"int24"},{"name":"hooks","type":"address","internalType":"contract IHooks"}]},{"name":"tickToSellAt","type":"int24","internalType":"int24"},{"name":"zeroForOne","type":"bool","internalType":"bool"},{"name":"amountToCancel","type":"uint256","internalType":"uint256"}],"outputs":[],"stateMutability":"nonpayable"},{"type":"function","name":"claimTokensSupply","inputs":[{"name":"positionId","type":"uint256","internalType":"uint256"}],"outputs":[{"name":"claimsSupply","type":"uint256","internalType":"uint256"}],"stateMutability":"view"},{"type":"function","name":"claimableOutputTokens","inputs":[{"name":"positionId","type":"uint256","internalType":"uint256"}],"outputs":[{"name":"outputClaimable","type":"uint256","internalType":"uint256"}],"stateMutability":"view"},{"type":"function","name":"getHookPermissions","inputs":[],"outputs":[{"name":"","type":"tuple","internalType":"struct Hooks.Permissions","components":[{"name":"beforeInitialize","type":"bool","internalType":"bool"},{"name":"afterInitialize","type":"bool","internalType":"bool"},{"name":"beforeAddLiquidity","type":"bool","internalType":"bool"},{"name":"afterAddLiquidity","type":"bool","internalType":"bool"},{"name":"beforeRemoveLiquidity","type":"bool","internalType":"bool"},{"name":"afterRemoveLiquidity","type":"bool","internalType":"bool"},{"name":"beforeSwap","type":"bool","internalType":"bool"},{"name":"afterSwap","type":"bool","internalType":"bool"},{"name":"beforeDonate","type":"bool","internalType":"bool"},{"name":"afterDonate","type":"bool","internalType":"bool"},{"name":"beforeSwapReturnDelta","type":"bool","internalType":"bool"},{"name":"afterSwapReturnDelta","type":"bool","internalType":"bool"},{"name":"afterAddLiquidityReturnDelta","type":"bool","internalType":"bool"},{"name":"afterRemoveLiquidityReturnDelta","type":"bool","internalType":"bool"}]}],"stateMutability":"pure"},{"type":"function","name":"getPositionId","inputs":[{"name":"key","type":"tuple","internalType":"struct PoolKey","components":[{"name":"currency0","type":"address","internalType":"Currency"},{"name":"currency1","type":"address","internalType":"Currency"},{"name":"fee","type":"uint24","internalType":"uint24"},{"name":"tickSpacing","type":"int24","internalType":"int24"},{"name":"hooks","type":"address","internalType":"contract IHooks"}]},{"name":"tick","type":"int24","internalType":"int24"},{"name":"zeroForOne","type":"bool","internalType":"bool"}],"outputs":[{"name":"","type":"uint256","internalType":"uint256"}],"stateMutability":"pure"},{"type":"function","name":"isApprovedForAll","inputs":[{"name":"account","type":"address","internalType":"address"},{"name":"operator","type":"address","internalType":"address"}],"outputs":[{"name":"","type":"bool","internalType":"bool"}],"stateMutability":"view"},{"type":"function","name":"lastTicks","inputs":[{"name":"poolId","type":"bytes32","internalType":"PoolId"}],"outputs":[{"name":"lastTick","type":"int24","internalType":"int24"}],"stateMutability":"view"},{"type":"function","name":"pendingOrders","inputs":[{"name":"poolId","type":"bytes32","internalType":"PoolId"},{"name":"tickToSellAt","type":"int24","internalType":"int24"},{"name":"zeroForOne","type":"bool","internalType":"bool"}],"outputs":[{"name":"inputAmount","type":"uint256","internalType":"uint256"}],"stateMutability":"view"},{"type":"function","name":"placeOrder","inputs":[{"name":"key","type":"tuple","internalType":"struct PoolKey","components":[{"name":"currency0","type":"address","internalType":"Currency"},{"name":"currency1","type":"address","internalType":"Currency"},{"name":"fee","type":"uint24","internalType":"uint24"},{"name":"tickSpacing","type":"int24","internalType":"int24"},{"name":"hooks","type":"address","internalType":"contract IHooks"}]},{"name":"tickToSellAt","type":"int24","internalType":"int24"},{"name":"zeroForOne","type":"bool","internalType":"bool"},{"name":"inputAmount","type":"uint256","internalType":"uint256"}],"outputs":[{"name":"","type":"int24","internalType":"int24"}],"stateMutability":"nonpayable"},{"type":"function","name":"poolManager","inputs":[],"outputs":[{"name":"","type":"address","internalType":"contract IPoolManager"}],"stateMutability":"view"},{"type":"function","name":"redeem","inputs":[{"name":"key","type":"tuple","internalType":"struct PoolKey","components":[{"name":"currency0","type":"address","internalType":"Currency"},{"name":"currency1","type":"address","internalType":"Currency"},{"name":"fee","type":"uint24","internalType":"uint24"},{"name":"tickSpacing","type":"int24","internalType":"int24"},{"name":"hooks","type":"address","internalType":"contract IHooks"}]},{"name":"tickToSellAt","type":"int24","internalType":"int24"},{"name":"zeroForOne","type":"bool","internalType":"bool"},{"name":"inputAmountToClaimFor","type":"uint256","internalType":"uint256"}],"outputs":[],"stateMutability":"nonpayable"},{"type":"function","name":"safeBatchTransferFrom","inputs":[{"name":"from","type":"address","internalType":"address"},{"name":"to","type":"address","internalType":"address"},{"name":"ids","type":"uint256[]","internalType":"uint256[]"},{"name":"values","type":"uint256[]","internalType":"uint256[]"},{"name":"data","type":"bytes","internalType":"bytes"}],"outputs":[],"stateMutability":"nonpayable"},{"type":"function","name":"safeTransferFrom","inputs":[{"name":"from","type":"address","internalType":"address"},{"name":"to","type":"address","internalType":"address"},{"name":"id","type":"uint256","internalType":"uint256"},{"name":"value","type":"uint256","internalType":"uint256"},{"name":"data","type":"bytes","internalType":"bytes"}],"outputs":[],"stateMutability":"nonpayable"},{"type":"function","name":"setApprovalForAll","inputs":[{"name":"operator","type":"address","internalType":"address"},{"name":"approved","type":"bool","internalType":"bool"}],"outputs":[],"stateMutability":"nonpayable"},{"type":"function","name":"supportsInterface","inputs":[{"name":"interfaceId","type":"bytes4","internalType":"bytes4"}],"outputs":[{"name":"","type":"bool","internalType":"bool"}],"stateMutability":"view"},{"type":"function","name":"unlockCallback","inputs":[{"name":"data","type":"bytes","internalType":"bytes"}],"outputs":[{"name":"","type":"bytes","internalType":"bytes"}],"stateMutability":"nonpayable"},{"type":"function","name":"uri","inputs":[{"name":"","type":"uint256","internalType":"uint256"}],"outputs":[{"name":"","type":"string","internalType":"string"}],"stateMutability":"view"},{"type":"event","name":"ApprovalForAll","inputs":[{"name":"account","type":"address","indexed":true,"internalType":"address"},{"name":"operator","type":"address","indexed":true,"internalType":"address"},{"name":"approved","type":"bool","indexed":false,"internalType":"bool"}],"anonymous":false},{"type":"event","name":"TransferBatch","inputs":[{"name":"operator","type":"address","indexed":true,"internalType":"address"},{"name":"from","type":"address","indexed":true,"internalType":"address"},{"name":"to","type":"address","indexed":true,"internalType":"address"},{"name":"ids","type":"uint256[]","indexed":false,"internalType":"uint256[]"},{"name":"values","type":"uint256[]","indexed":false,"internalType":"uint256[]"}],"anonymous":false},{"type":"event","name":"TransferSingle","inputs":[{"name":"operator","type":"address","indexed":true,"internalType":"address"},{"name":"from","type":"address","indexed":true,"internalType":"address"},{"name":"to","type":"address","indexed":true,"internalType":"address"},{"name":"id","type":"uint256","indexed":false,"internalType":"uint256"},{"name":"value","type":"uint256","indexed":false,"internalType":"uint256"}],"anonymous":false},{"type":"event","name":"URI","inputs":[{"name":"value","type":"string","indexed":false,"internalType":"string"},{"name":"id","type":"uint256","indexed":true,"internalType":"uint256"}],"anonymous":false},{"type":"error","name":"ERC1155InsufficientBalance","inputs":[{"name":"sender","type":"address","internalType":"address"},{"name":"balance","type":"uint256","internalType":"uint256"},{"name":"needed","type":"uint256","internalType":"uint256"},{"name":"tokenId","type":"uint256","internalType":"uint256"}]},{"type":"error","name":"ERC1155InvalidApprover","inputs":[{"name":"approver","type":"address","internalType":"address"}]},{"type":"error","name":"ERC1155InvalidArrayLength","inputs":[{"name":"idsLength","type":"uint256","internalType":"uint256"},{"name":"valuesLength","type":"uint256","internalType":"uint256"}]},{"type":"error","name":"ERC1155InvalidOperator","inputs":[{"name":"operator","type":"address","internalType":"address"}]},{"type":"error","name":"ERC1155InvalidReceiver","inputs":[{"name":"receiver","type":"address","internalType":"address"}]},{"type":"error","name":"ERC1155InvalidSender","inputs":[{"name":"sender","type":"address","internalType":"address"}]},{"type":"error","name":"ERC1155MissingApprovalForAll","inputs":[{"name":"operator","type":"address","internalType":"address"},{"name":"owner","type":"address","internalType":"address"}]},{"type":"error","name":"HookNotImplemented","inputs":[]},{"type":"error","name":"InvalidOrder","inputs":[]},{"type":"error","name":"InvalidPool","inputs":[]},{"type":"error","name":"LockFailure","inputs":[]},{"type":"error","name":"NotEnoughToClaim","inputs":[]},{"type":"error","name":"NotPoolManager","inputs":[]},{"type":"error","name":"NotSelf","inputs":[]},{"type":"error","name":"NothingToClaim","inputs":[]}],"bytecode":{"object":"0x60a060405234801561000f575f80fd5b5060405161337838038061337883398101604081905261002e916102ce565b6001600160a01b038216608052808261004630610058565b506100508161014e565b5050506104db565b61014b81610146604080516101c0810182525f80825260208201819052918101829052606081018290526080810182905260a0810182905260c0810182905260e08101829052610100810182905261012081018290526101408101829052610160810182905261018081018290526101a081019190915250604080516101c0810182525f808252600160208301819052928201819052606082018190526080820181905260a0820181905260c0820181905260e0820192909252610100810182905261012081018290526101408101829052610160810182905261018081018290526101a081019190915290565b61015e565b50565b600261015a8282610421565b5050565b80511515612000831615151415806101825750602081015115156110008316151514155b806101995750604081015115156108008316151514155b806101b05750606081015115156104008316151514155b806101c75750608081015115156102008316151514155b806101de575060a081015115156101008316151514155b806101f4575060c0810151151560808316151514155b8061020a575060e0810151151560408316151514155b806102215750610100810151151560208316151514155b806102385750610120810151151560108316151514155b8061024f5750610140810151151560088316151514155b806102665750610160810151151560048316151514155b8061027d5750610180810151151560028316151514155b8061029457506101a0810151151560018316151514155b1561015a5761015a630732d7b560e51b83815f526001600160a01b03811660045260245ffd5b634e487b7160e01b5f52604160045260245ffd5b5f80604083850312156102df575f80fd5b82516001600160a01b03811681146102f5575f80fd5b60208401519092506001600160401b03811115610310575f80fd5b8301601f81018513610320575f80fd5b80516001600160401b03811115610339576103396102ba565b604051601f8201601f19908116603f011681016001600160401b0381118282101715610367576103676102ba565b60405281815282820160200187101561037e575f80fd5b8160208401602083015e5f602083830101528093505050509250929050565b600181811c908216806103b157607f821691505b6020821081036103cf57634e487b7160e01b5f52602260045260245ffd5b50919050565b601f82111561041c57805f5260205f20601f840160051c810160208510156103fa5750805b601f840160051c820191505b81811015610419575f8155600101610406565b50505b505050565b81516001600160401b0381111561043a5761043a6102ba565b61044e81610448845461039d565b846103d5565b6020601f821160018114610480575f83156104695750848201515b5f19600385901b1c1916600184901b178455610419565b5f84815260208120601f198516915b828110156104af578785015182556020948501946001909201910161048f565b50848210156104cc57868401515f19600387901b60f8161c191681555b50505050600190811b01905550565b608051612e466105325f395f8181610524015281816109e601528181610be601528181610c51015281816112b301528181611bf201528181611d7d01528181611de401528181611e1d0152611ede0152612e465ff3fe608060405234801561000f575f80fd5b50600436106101c5575f3560e01c80639f063efc116100fe578063dc4c90d31161009e578063e4cbfea51161006e578063e4cbfea51461057f578063e985e9c5146105a1578063f242432a146105dc578063fa59cb0c146105ef575f80fd5b8063dc4c90d31461051f578063dc98354e1461055e578063dd02c9641461056c578063e1b4af691461041a575f80fd5b8063b47b2fb1116100d9578063b47b2fb1146103c5578063b5a33914146103fb578063b6a8b0fa1461041a578063c4e833ce14610428575f80fd5b80639f063efc14610303578063a22cb46514610382578063a2dc31b214610395575f80fd5b80633bb76cc1116101695780636c2bbe7e116101445780636c2bbe7e146103035780636fe7e6eb146103365780637e8941af1461034957806391dd73461461036f575f80fd5b80633bb76cc1146102865780634e1273f4146102a5578063575e24b4146102c5575f80fd5b80630e89341c116101a45780630e89341c1461022757806321d0ee7014610247578063259982e5146102475780632eb2c2d614610273575f80fd5b8062fdd58e146101c957806301ffc9a7146101ef5780630362668614610212575b5f80fd5b6101dc6101d7366004611f48565b610602565b6040519081526020015b60405180910390f35b6102026101fd366004611f87565b610629565b60405190151581526020016101e6565b610225610220366004611fdb565b610678565b005b61023a610235366004612027565b6107a2565b6040516101e6919061206c565b61025a6102553660046120cc565b610834565b6040516001600160e01b031990911681526020016101e6565b610225610281366004612281565b61084e565b6101dc610294366004612027565b60056020525f908152604090205481565b6102b86102b3366004612334565b6108d8565b6040516101e69190612433565b6102d86102d3366004612455565b6109a3565b604080516001600160e01b03199094168452602084019290925262ffffff16908201526060016101e6565b6103166103113660046124af565b6109bf565b604080516001600160e01b031990931683526020830191909152016101e6565b61025a61034436600461253a565b6109da565b61035c610357366004611fdb565b610a70565b60405160029190910b81526020016101e6565b61023a61037d366004612591565b610bd9565b6102256103903660046125d0565b610c35565b6101dc6103a3366004612607565b600460209081525f938452604080852082529284528284209052825290205481565b6103d86103d3366004612644565b610c44565b604080516001600160e01b03199093168352600f9190910b6020830152016101e6565b6101dc610409366004612027565b60066020525f908152604090205481565b61025a6102553660046126c5565b610512604080516101c0810182525f80825260208201819052918101829052606081018290526080810182905260a0810182905260c0810182905260e08101829052610100810182905261012081018290526101408101829052610160810182905261018081018290526101a081019190915250604080516101c0810182525f808252600160208301819052928201819052606082018190526080820181905260a0820181905260c0820181905260e0820192909252610100810182905261012081018290526101408101829052610160810182905261018081018290526101a081019190915290565b6040516101e6919061271f565b6105467f000000000000000000000000000000000000000000000000000000000000000081565b6040516001600160a01b0390911681526020016101e6565b61025a610255366004612840565b61022561057a366004611fdb565b610d33565b61035c61058d366004612027565b60036020525f908152604090205460020b81565b6102026105af36600461287c565b6001600160a01b039182165f90815260016020908152604080832093909416825291909152205460ff1690565b6102256105ea3660046128a8565b610e79565b6101dc6105fd366004612900565b610ef6565b5f818152602081815260408083206001600160a01b03861684529091529020545b92915050565b5f6001600160e01b03198216636cdb3d1360e11b148061065957506001600160e01b031982166303a24d0760e21b145b8061062357506301ffc9a760e01b6001600160e01b0319831614610623565b5f6106928461068d608088016060890161293a565b610f49565b90505f6106a0868386610ef6565b90505f6106ad3383610602565b9050838110156106d057604051639378648960e01b815260040160405180910390fd5b8360045f6106ed6106e6368c90038c018c612965565b60a0902090565b815260208082019290925260409081015f908120600288900b82528352818120891515825290925281208054909190610727908490612a0d565b90915550505f8281526006602052604081208054869290610749908490612a0d565b9091555061075a9050338386610f99565b5f85610775576107706040890160208a01612a20565b610782565b6107826020890189612a20565b90506107986001600160a01b0382163387611006565b5050505050505050565b6060600280546107b190612a3b565b80601f01602080910402602001604051908101604052809291908181526020018280546107dd90612a3b565b80156108285780601f106107ff57610100808354040283529160200191610828565b820191905f5260205f20905b81548152906001019060200180831161080b57829003601f168201915b50505050509050919050565b5f604051630a85dc2960e01b815260040160405180910390fd5b336001600160a01b038616811480159061088d57506001600160a01b038087165f9081526001602090815260408083209385168352929052205460ff16155b156108c35760405163711bec9160e11b81526001600160a01b038083166004830152871660248201526044015b60405180910390fd5b6108d086868686866110ab565b505050505050565b606081518351146109095781518351604051635b05999160e01b8152600481019290925260248201526044016108ba565b5f835167ffffffffffffffff81111561092457610924612143565b60405190808252806020026020018201604052801561094d578160200160208202803683370190505b5090505f5b845181101561099b5760208082028601015161097690602080840287010151610602565b82828151811061098857610988612a6d565b6020908102919091010152600101610952565b509392505050565b5f805f604051630a85dc2960e01b815260040160405180910390fd5b5f80604051630a85dc2960e01b815260040160405180910390fd5b5f336001600160a01b037f00000000000000000000000000000000000000000000000000000000000000001614610a245760405163570c108560e11b815260040160405180910390fd5b8160035f610a3a6106e636899003890189612965565b815260208101919091526040015f20805462ffffff191662ffffff9290921691909117905550636fe7e6eb60e01b949350505050565b5f80610a868561068d6080890160608a0161293a565b90508260045f610a9e6106e6368b90038b018b612965565b815260208082019290925260409081015f908120600286900b82528352818120881515825290925281208054909190610ad8908490612a81565b909155505f9050610aea878387610ef6565b90508360065f8381526020019081526020015f205f828254610b0c9190612a81565b92505081905550610b2d33828660405180602001604052805f815250611109565b5f85610b4857610b436040890160208a01612a20565b610b55565b610b556020890189612a20565b6040516323b872dd60e01b8152336004820152306024820152604481018790529091506001600160a01b038216906323b872dd906064016020604051808303815f875af1158015610ba8573d5f803e3d5ffd5b505050506040513d601f19601f82011682018060405250810190610bcc9190612a94565b5091979650505050505050565b6060336001600160a01b037f00000000000000000000000000000000000000000000000000000000000000001614610c245760405163570c108560e11b815260040160405180910390fd5b610c2e8383611164565b9392505050565b610c403383836111fd565b5050565b5f80336001600160a01b037f00000000000000000000000000000000000000000000000000000000000000001614610c8f5760405163570c108560e11b815260040160405180910390fd5b306001600160a01b03891603610cb0575063b47b2fb160e01b90505f610d28565b60015f5b8115610cdb57610cd189610ccb60208b018b612aaf565b15611291565b9092509050610cb4565b8060035f610cf16106e6368e90038e018e612965565b815260208101919091526040015f908120805462ffffff191662ffffff939093169290921790915563b47b2fb160e01b9450925050505b965096945050505050565b5f610d488461068d608088016060890161293a565b90505f610d56868386610ef6565b5f8181526005602052604081205491925003610d85576040516312d37ee560e31b815260040160405180910390fd5b5f610d903383610602565b905083811015610db357604051639378648960e01b815260040160405180910390fd5b5f8281526005602090815260408083205460069092528220549091610dd987848461144b565b90508060055f8781526020019081526020015f205f828254610dfb9190612a0d565b90915550505f8581526006602052604081208054899290610e1d908490612a0d565b90915550610e2e9050338689610f99565b5f88610e4657610e4160208c018c612a20565b610e56565b610e5660408c0160208d01612a20565b9050610e6c6001600160a01b0382163384611006565b5050505050505050505050565b336001600160a01b0386168114801590610eb857506001600160a01b038087165f9081526001602090815260408083209385168352929052205460ff16155b15610ee95760405163711bec9160e11b81526001600160a01b038083166004830152871660248201526044016108ba565b6108d08686868686611466565b5f610f096106e636869003860186612965565b604080516020810192909252600285900b90820152821515606082015260800160408051601f198184030181529190528051602090910120949350505050565b5f80610f558385612ade565b90505f8460020b128015610f745750610f6e8385612b16565b60020b15155b15610f875780610f8381612b37565b9150505b610f918382612b58565b949350505050565b6001600160a01b038316610fc157604051626a0d4560e21b81525f60048201526024016108ba565b604080516001808252602082018590528183019081526060820184905260a082019092525f60808201818152919291610fff918791859085906114f2565b5050505050565b5f6001600160a01b03841661103b575f805f8085875af190508061103657611036835f633d2cec6f60e21b611545565b6110a5565b60405163a9059cbb60e01b81526001600160a01b038416600482015282602482015260205f6044835f895af13d15601f3d1160015f511416171691505f81525f60208201525f604082015250806110a5576110a58463a9059cbb60e01b633c9fd93960e21b611545565b50505050565b6001600160a01b0384166110d457604051632bfa23e760e11b81525f60048201526024016108ba565b6001600160a01b0385166110fc57604051626a0d4560e21b81525f60048201526024016108ba565b610fff85858585856114f2565b6001600160a01b03841661113257604051632bfa23e760e11b81525f60048201526024016108ba565b604080516001808252602082018690528183019081526060820185905260808201909252906108d05f878484876114f2565b60605f80306001600160a01b03168585604051611182929190612b77565b5f604051808303815f865af19150503d805f81146111bb576040519150601f19603f3d011682016040523d82523d5f602084013e6111c0565b606091505b509150915081156111d45791506106239050565b80515f036111f5576040516314815f4760e31b815260040160405180910390fd5b805160208201fd5b6001600160a01b0382166112255760405162ced3e160e81b81525f60048201526024016108ba565b6001600160a01b038381165f81815260016020908152604080832094871680845294825291829020805460ff191686151590811790915591519182527f17307eab39ab6107e8899845ad3d59bd9653f200f220920489ca2b5937696c31910160405180910390a3505050565b5f80806112d96112a96106e636889003880188612965565b6001600160a01b037f000000000000000000000000000000000000000000000000000000000000000016906115bd565b50509150505f60035f6112f6888036038101906106e69190612965565b815260208101919091526040015f2054600290810b915082900b8112156113b457805b8260020b8160020b12156113ae575f60048161133d6106e6368c90038c018c612965565b815260208082019290925260409081015f908120600286900b825283528181208a151582529092529020549050801561138c5761137c8883898461166f565b6001849550955050505050611444565b5061139d608088016060890161293a565b6113a79082612b86565b9050611319565b5061143d565b805b8260020b8160020b131561143b575f6004816113da6106e6368c90038c018c612965565b815260208082019290925260409081015f908120600286900b825283528181208a15158252909252902054905080156114195761137c8883898461166f565b5061142a608088016060890161293a565b6114349082612bab565b90506113b6565b505b505f925090505b9250929050565b5f825f19048411830215820261145f575f80fd5b5091020490565b6001600160a01b03841661148f57604051632bfa23e760e11b81525f60048201526024016108ba565b6001600160a01b0385166114b757604051626a0d4560e21b81525f60048201526024016108ba565b604080516001808252602082018690528183019081526060820185905260808201909252906114e987878484876114f2565b50505050505050565b6114fe8585858561179b565b6001600160a01b03841615610fff578251339060010361153757602084810151908401516115308389898585896119aa565b50506108d0565b6108d0818787878787611acb565b6040516390bfb86560e01b8082526001600160a01b03851660048301526001600160e01b031984166024830152608060448301526020601f3d018190040260a0810160648401523d608484015290913d5f60a483013e60048260a4018201526001600160e01b031984168260c4018201528160e40181fd5b5f805f805f6115cb86611bb2565b604051631e2eaeaf60e01b8152600481018290529091505f906001600160a01b03891690631e2eaeaf90602401602060405180830381865afa158015611613573d5f803e3d5ffd5b505050506040513d601f19601f820116820180604052508101906116379190612bd0565b90506001600160a01b03811695508060a01c60020b945062ffffff8160b81c16935062ffffff8160d01c169250505092959194509250565b5f6116df85604051806060016040528086151581526020018561169190612be7565b8152602001866116bf576116ba600173fffd8963efd1fc6a506488495d951d5263988d26612c01565b6116cf565b6116cf6401000276a36001612c20565b6001600160a01b03169052611bee565b90508160045f6116f76106e6368a90038a018a612965565b815260208082019290925260409081015f908120600289900b82528352818120871515825290925281208054909190611731908490612a0d565b909155505f9050611743868686610ef6565b90505f8461175d576117558360801d90565b600f0b61176b565b61176783600f0b90565b600f0b5b90508060055f8481526020019081526020015f205f82825461178d9190612a81565b909155505050505050505050565b80518251146117ca5781518151604051635b05999160e01b8152600481019290925260248201526044016108ba565b335f5b83518110156118cc576020818102858101820151908501909101516001600160a01b0388161561187e575f828152602081815260408083206001600160a01b038c16845290915290205481811015611858576040516303dee4c560e01b81526001600160a01b038a1660048201526024810182905260448101839052606481018490526084016108ba565b5f838152602081815260408083206001600160a01b038d16845290915290209082900390555b6001600160a01b038716156118c2575f828152602081815260408083206001600160a01b038b168452909152812080548392906118bc908490612a81565b90915550505b50506001016117cd565b50825160010361194c5760208301515f906020840151909150856001600160a01b0316876001600160a01b0316846001600160a01b03167fc3d58168c5ae7397731d063d5bbf3d657854427343f4c083240f7aacaa2d0f62858560405161193d929190918252602082015260400190565b60405180910390a45050610fff565b836001600160a01b0316856001600160a01b0316826001600160a01b03167f4a39dc06d4c0dbc64b70af90fd698a233a518aa5d07e595d983b8c0526c8f7fb868660405161199b929190612c3f565b60405180910390a45050505050565b6001600160a01b0384163b156108d05760405163f23a6e6160e01b81526001600160a01b0385169063f23a6e61906119ee9089908990889088908890600401612c6c565b6020604051808303815f875af1925050508015611a28575060408051601f3d908101601f19168201909252611a2591810190612cb3565b60015b611a8f573d808015611a55576040519150601f19603f3d011682016040523d82523d5f602084013e611a5a565b606091505b5080515f03611a8757604051632bfa23e760e11b81526001600160a01b03861660048201526024016108ba565b805181602001fd5b6001600160e01b0319811663f23a6e6160e01b146114e957604051632bfa23e760e11b81526001600160a01b03861660048201526024016108ba565b6001600160a01b0384163b156108d05760405163bc197c8160e01b81526001600160a01b0385169063bc197c8190611b0f9089908990889088908890600401612cce565b6020604051808303815f875af1925050508015611b49575060408051601f3d908101601f19168201909252611b4691810190612cb3565b60015b611b76573d808015611a55576040519150601f19603f3d011682016040523d82523d5f602084013e611a5a565b6001600160e01b0319811663bc197c8160e01b146114e957604051632bfa23e760e11b81526001600160a01b03861660048201526024016108ba565b6040515f90611bd1908390600690602001918252602082015260400190565b604051602081830303815290604052805190602001209050919050565b5f807f00000000000000000000000000000000000000000000000000000000000000006001600160a01b031663f3cd914c85856040518363ffffffff1660e01b8152600401611c3e929190612d30565b6020604051808303815f875af1158015611c5a573d5f803e3d5ffd5b505050506040513d601f19601f82011682018060405250810190611c7e9190612bd0565b835190915015611cff575f611c938260801d90565b600f0b1215611cc457611cc4611cac6020860186612a20565b611cb68360801d90565b611cbf90612de3565b611d5e565b5f611ccf82600f0b90565b600f0b1315611cfa57611cfa611ceb6040860160208701612a20565b611cf583600f0b90565b611ea1565b610c2e565b5f611d0a82600f0b90565b600f0b1215611d3057611d30611d266040860160208701612a20565b611cb683600f0b90565b5f611d3b8260801d90565b600f0b1315610c2e57610c2e611d546020860186612a20565b611cf58360801d90565b604051632961046560e21b81526001600160a01b0383811660048301527f0000000000000000000000000000000000000000000000000000000000000000169063a5841194906024015f604051808303815f87803b158015611dbe575f80fd5b505af1158015611dd0573d5f803e3d5ffd5b50611e1b925050506001600160a01b0383167f00000000000000000000000000000000000000000000000000000000000000006fffffffffffffffffffffffffffffffff8416611006565b7f00000000000000000000000000000000000000000000000000000000000000006001600160a01b03166311da60b46040518163ffffffff1660e01b81526004016020604051808303815f875af1158015611e78573d5f803e3d5ffd5b505050506040513d601f19601f82011682018060405250810190611e9c9190612bd0565b505050565b604051630b0d9c0960e01b81526001600160a01b0383811660048301523060248301526fffffffffffffffffffffffffffffffff831660448301527f00000000000000000000000000000000000000000000000000000000000000001690630b0d9c09906064015f604051808303815f87803b158015611f1f575f80fd5b505af11580156108d0573d5f803e3d5ffd5b6001600160a01b0381168114611f45575f80fd5b50565b5f8060408385031215611f59575f80fd5b8235611f6481611f31565b946020939093013593505050565b6001600160e01b031981168114611f45575f80fd5b5f60208284031215611f97575f80fd5b8135610c2e81611f72565b5f60a08284031215611fb2575f80fd5b50919050565b8035600281900b8114611fc9575f80fd5b919050565b8015158114611f45575f80fd5b5f805f806101008587031215611fef575f80fd5b611ff98686611fa2565b935061200760a08601611fb8565b925060c085013561201781611fce565b9396929550929360e00135925050565b5f60208284031215612037575f80fd5b5035919050565b5f81518084528060208401602086015e5f602082860101526020601f19601f83011685010191505092915050565b602081525f610c2e602083018461203e565b5f60808284031215611fb2575f80fd5b5f8083601f84011261209e575f80fd5b50813567ffffffffffffffff8111156120b5575f80fd5b602083019150836020828501011115611444575f80fd5b5f805f805f61016086880312156120e1575f80fd5b85356120ec81611f31565b94506120fb8760208801611fa2565b935061210a8760c0880161207e565b925061014086013567ffffffffffffffff811115612126575f80fd5b6121328882890161208e565b969995985093965092949392505050565b634e487b7160e01b5f52604160045260245ffd5b604051601f8201601f1916810167ffffffffffffffff8111828210171561218057612180612143565b604052919050565b5f67ffffffffffffffff8211156121a1576121a1612143565b5060051b60200190565b5f82601f8301126121ba575f80fd5b81356121cd6121c882612188565b612157565b8082825260208201915060208360051b8601019250858311156121ee575f80fd5b602085015b8381101561220b5780358352602092830192016121f3565b5095945050505050565b5f82601f830112612224575f80fd5b813567ffffffffffffffff81111561223e5761223e612143565b612251601f8201601f1916602001612157565b818152846020838601011115612265575f80fd5b816020850160208301375f918101602001919091529392505050565b5f805f805f60a08688031215612295575f80fd5b85356122a081611f31565b945060208601356122b081611f31565b9350604086013567ffffffffffffffff8111156122cb575f80fd5b6122d7888289016121ab565b935050606086013567ffffffffffffffff8111156122f3575f80fd5b6122ff888289016121ab565b925050608086013567ffffffffffffffff81111561231b575f80fd5b61232788828901612215565b9150509295509295909350565b5f8060408385031215612345575f80fd5b823567ffffffffffffffff81111561235b575f80fd5b8301601f8101851361236b575f80fd5b80356123796121c882612188565b8082825260208201915060208360051b85010192508783111561239a575f80fd5b6020840193505b828410156123c55783356123b481611f31565b8252602093840193909101906123a1565b9450505050602083013567ffffffffffffffff8111156123e3575f80fd5b6123ef858286016121ab565b9150509250929050565b5f8151808452602084019350602083015f5b8281101561242957815186526020958601959091019060010161240b565b5093949350505050565b602081525f610c2e60208301846123f9565b5f60608284031215611fb2575f80fd5b5f805f805f610140868803121561246a575f80fd5b853561247581611f31565b94506124848760208801611fa2565b93506124938760c08801612445565b925061012086013567ffffffffffffffff811115612126575f80fd5b5f805f805f805f6101a0888a0312156124c6575f80fd5b87356124d181611f31565b96506124e08960208a01611fa2565b95506124ef8960c08a0161207e565b94506101408801359350610160880135925061018088013567ffffffffffffffff81111561251b575f80fd5b6125278a828b0161208e565b989b979a50959850939692959293505050565b5f805f80610100858703121561254e575f80fd5b843561255981611f31565b93506125688660208701611fa2565b925060c085013561257881611f31565b915061258660e08601611fb8565b905092959194509250565b5f80602083850312156125a2575f80fd5b823567ffffffffffffffff8111156125b8575f80fd5b6125c48582860161208e565b90969095509350505050565b5f80604083850312156125e1575f80fd5b82356125ec81611f31565b915060208301356125fc81611fce565b809150509250929050565b5f805f60608486031215612619575f80fd5b8335925061262960208501611fb8565b9150604084013561263981611fce565b809150509250925092565b5f805f805f80610160878903121561265a575f80fd5b863561266581611f31565b95506126748860208901611fa2565b94506126838860c08901612445565b9350610120870135925061014087013567ffffffffffffffff8111156126a7575f80fd5b6126b389828a0161208e565b979a9699509497509295939492505050565b5f805f805f8061012087890312156126db575f80fd5b86356126e681611f31565b95506126f58860208901611fa2565b945060c0870135935060e0870135925061010087013567ffffffffffffffff8111156126a7575f80fd5b8151151581526101c08101602083015161273d602084018215159052565b506040830151612751604084018215159052565b506060830151612765606084018215159052565b506080830151612779608084018215159052565b5060a083015161278d60a084018215159052565b5060c08301516127a160c084018215159052565b5060e08301516127b560e084018215159052565b506101008301516127cb61010084018215159052565b506101208301516127e161012084018215159052565b506101408301516127f761014084018215159052565b5061016083015161280d61016084018215159052565b5061018083015161282361018084018215159052565b506101a08301516128396101a084018215159052565b5092915050565b5f805f60e08486031215612852575f80fd5b833561285d81611f31565b925061286c8560208601611fa2565b915060c084013561263981611f31565b5f806040838503121561288d575f80fd5b823561289881611f31565b915060208301356125fc81611f31565b5f805f805f60a086880312156128bc575f80fd5b85356128c781611f31565b945060208601356128d781611f31565b93506040860135925060608601359150608086013567ffffffffffffffff81111561231b575f80fd5b5f805f60e08486031215612912575f80fd5b61291c8585611fa2565b925061292a60a08501611fb8565b915060c084013561263981611fce565b5f6020828403121561294a575f80fd5b610c2e82611fb8565b803562ffffff81168114611fc9575f80fd5b5f60a0828403128015612976575f80fd5b5060405160a0810167ffffffffffffffff8111828210171561299a5761299a612143565b60405282356129a881611f31565b815260208301356129b881611f31565b60208201526129c960408401612953565b60408201526129da60608401611fb8565b606082015260808301356129ed81611f31565b60808201529392505050565b634e487b7160e01b5f52601160045260245ffd5b81810381811115610623576106236129f9565b5f60208284031215612a30575f80fd5b8135610c2e81611f31565b600181811c90821680612a4f57607f821691505b602082108103611fb257634e487b7160e01b5f52602260045260245ffd5b634e487b7160e01b5f52603260045260245ffd5b80820180821115610623576106236129f9565b5f60208284031215612aa4575f80fd5b8151610c2e81611fce565b5f60208284031215612abf575f80fd5b8135610c2e81611fce565b634e487b7160e01b5f52601260045260245ffd5b5f8160020b8360020b80612af457612af4612aca565b627fffff1982145f1982141615612b0d57612b0d6129f9565b90059392505050565b5f8260020b80612b2857612b28612aca565b808360020b0791505092915050565b5f8160020b627fffff198103612b4f57612b4f6129f9565b5f190192915050565b5f8260020b8260020b028060020b9150808214612839576128396129f9565b818382375f9101908152919050565b600281810b9083900b01627fffff8113627fffff1982121715610623576106236129f9565b600282810b9082900b03627fffff198112627fffff82131715610623576106236129f9565b5f60208284031215612be0575f80fd5b5051919050565b5f600160ff1b8201612bfb57612bfb6129f9565b505f0390565b6001600160a01b038281168282160390811115610623576106236129f9565b6001600160a01b038181168382160190811115610623576106236129f9565b604081525f612c5160408301856123f9565b8281036020840152612c6381856123f9565b95945050505050565b6001600160a01b03861681526001600160a01b038516602082015283604082015282606082015260a060808201525f612ca860a083018461203e565b979650505050505050565b5f60208284031215612cc3575f80fd5b8151610c2e81611f72565b6001600160a01b03861681526001600160a01b038516602082015260a060408201525f612cfe60a08301866123f9565b8281036060840152612d1081866123f9565b90508281036080840152612d24818561203e565b98975050505050505050565b5f8335612d3c81611f31565b6001600160a01b031682526020840135612d5581611f31565b6001600160a01b0316602083015262ffffff612d7360408601612953565b166040830152612d8560608501611fb8565b60020b60608301526080840135612d9b81611f31565b6001600160a01b0390811660808401528351151560a0840152602084015160c084015260408401511660e0830152610120610100830152610f9161012083015f815260200190565b5f81600f0b6f7fffffffffffffffffffffffffffffff198103612e0857612e086129f9565b5f039291505056fea26469706673582212202b304182847e6b8759efcce3092238f0a0c610ee40a375f0d5a95c5d1283727764736f6c634300081a0033","linkReferences":{}},"methodIdentifiers":{"afterAddLiquidity(address,(address,address,uint24,int24,address),(int24,int24,int256,bytes32),int256,int256,bytes)":"9f063efc","afterDonate(address,(address,address,uint24,int24,address),uint256,uint256,bytes)":"e1b4af69","afterInitialize(address,(address,address,uint24,int24,address),uint160,int24)":"6fe7e6eb","afterRemoveLiquidity(address,(address,address,uint24,int24,address),(int24,int24,int256,bytes32),int256,int256,bytes)":"6c2bbe7e","afterSwap(address,(address,address,uint24,int24,address),(bool,int256,uint160),int256,bytes)":"b47b2fb1","balanceOf(address,uint256)":"00fdd58e","balanceOfBatch(address[],uint256[])":"4e1273f4","beforeAddLiquidity(address,(address,address,uint24,int24,address),(int24,int24,int256,bytes32),bytes)":"259982e5","beforeDonate(address,(address,address,uint24,int24,address),uint256,uint256,bytes)":"b6a8b0fa","beforeInitialize(address,(address,address,uint24,int24,address),uint160)":"dc98354e","beforeRemoveLiquidity(address,(address,address,uint24,int24,address),(int24,int24,int256,bytes32),bytes)":"21d0ee70","beforeSwap(address,(address,address,uint24,int24,address),(bool,int256,uint160),bytes)":"575e24b4","cancelOrder((address,address,uint24,int24,address),int24,bool,uint256)":"03626686","claimTokensSupply(uint256)":"b5a33914","claimableOutputTokens(uint256)":"3bb76cc1","getHookPermissions()":"c4e833ce","getPositionId((address,address,uint24,int24,address),int24,bool)":"fa59cb0c","isApprovedForAll(address,address)":"e985e9c5","lastTicks(bytes32)":"e4cbfea5","pendingOrders(bytes32,int24,bool)":"a2dc31b2","placeOrder((address,address,uint24,int24,address),int24,bool,uint256)":"7e8941af","poolManager()":"dc4c90d3","redeem((address,address,uint24,int24,address),int24,bool,uint256)":"dd02c964","safeBatchTransferFrom(address,address,uint256[],uint256[],bytes)":"2eb2c2d6","safeTransferFrom(address,address,uint256,uint256,bytes)":"f242432a","setApprovalForAll(address,bool)":"a22cb465","supportsInterface(bytes4)":"01ffc9a7","unlockCallback(bytes)":"91dd7346","uri(uint256)":"0e89341c"},"id":42}